:1000000080314A28053008007E1480310B1F0928F2
:100010000A2848282100111E0E280F281B2820001E
:10002000111E132814281B28210066088A00650861
:100030000A00803148282100911E1F2820282C28E2
:100040002000911E242825282C28220048088A00F8
:1000500047080A00803148282100921D30283128A5
:100060003D282000921D352836283D2821006808AB
:100070008A0067080A00803148282100911D412824
:10008000422848282000911D46284728482836281D
:100090007E10090080314C282100AD3114258031BB
:1000A000EE0000308400AE308500DD308600013087
:1000B00087000A30AD319D25803158308400A4304E
:1000C000850020308600023087003230AD319D251A
:1000D0008031FD012000EA01EB01EC01DF308400FA
:1000E000003085000F30AD31972580312200C501E9
:1000F000C601C701C801A0308400013085003D3031
:10010000AD3197258031CB3084000230850020301E
:10011000AD31972580317E10200092314A2A21008E
:10012000B400B52BB730AD00B030AE00AF317227A0
:100130008031402CB730AD00B230AE00AF31722705
:10014000803115302000B800B630B900A530BA00B3
:10015000B230BB006E30BC00A830BD006E30BE00B7
:10016000A830BF00A03111208031402C5030AD00AC
:10017000B330AE00AF3172278031402CC830AD00B3
:10018000B230AE00AF317227803125302000B80088
:10019000B630B9000530BA00B430BB006E30BC00D8
:1001A000A830BD006E30BE00A830BF00A0311120C5
:1001B0008031402C5030AD00B330AE00AF317227EB
:1001C0008031402CD930AD00B230AE00AF31722753
:1001D00080312D302000B800B630B9002330BA008D
:1001E000B430BB006E30BC00A830BD006E30BE0025
:1001F000A830BF00A03111208031402C5030AD001C
:10020000B330AE00AF3172278031402CEA30AD0000
:10021000B230AE00AF317227803135302000B800E7
:10022000B630B9001430BA00B430BB006E30BC0038
:10023000A830BD006E30BE00A830BF00A031112034
:100240008031402C5030AD00B330AE00AF3172275A
:100250008031402CFB30AD00B230AE00AF317227A0
:1002600080313D302000B800B630B900A930BA0066
:10027000B530BB006E30BC00A830BD006E30BE0093
:10028000A830BF00A03111208031402C5030AD008B
:10029000B330AE00AF3172278031402C0C30AD004E
:1002A000B330AE00AF317227803145302000B80046
:1002B000B630B9004830BA00B130BB006E30BC0077
:1002C000A830BD006E30BE00A830BF00A0311120A4
:1002D0008031402C5030AD00B330AE00AF317227CA
:1002E0008031402C1D30AD00B330AE00AF317227ED
:1002F00080314D302000B800B630B9005C30BA0013
:10030000B130BB006E30BC00A830BD006E30BE0006
:10031000A830BF00A03111208031402C5030AD00FA
:10032000B330AE00AF3172278031402C2E30AD009B
:10033000B330AE00AF317227803155302000B800A5
:10034000B630B900B630BA00B330BB008330BC0061
:10035000B330BD006E30BE00A830BF00A031112008
:100360008031402C5030AD00B330AE00AF31722739
:100370008031402C3F30AD00B330AE00AF3172273A
:100380008031B4302000B800B530B900B630BA00C2
:10039000B330BB00C730BC00B330BD006E30BE0010
:1003A000A830BF00A03111208031402C5030AD006A
:1003B000B330AE00AF3172278031402CA930AD0090
:1003C000B130AE00AF3172278031BD302000B800AF
:1003D000B530B9008630BA00B530BB006E30BC0015
:1003E000A830BD006E30BE00A830BF00A031112083
:1003F0008031402C5030AD00B330AE00AF317227A9
:100400008031402CBB30AD00B130AE00AF3172272F
:100410008031BD302000B800B530B9006E30BA0070
:10042000A830BB006E30BC00A830BD006E30BE00EE
:10043000A830BF00A03111208031402C5030AD00D9
:10044000B330AE00AF3172278031402CCD30AD00DB
:10045000B130AE00AF3172278031CF302000B8000C
:10046000B530B900D730BA00B330BB008A30BC0019
:10047000B430BD009430BE00B330BF00A0311120B5
:10048000803121003008860031088700013081006A
:10049000402C5030AD00B330AE00AF317227803108
:1004A000402CDF30AD00B130AE00AF31722780316B
:1004B000210030088600310887008101D8302000F3
:1004C000B800B530B900C630BA00B530BB006E30E8
:1004D000BC00A830BD006E30BE00A830BF00A03107
:1004E00011208031402C5030AD00B330AE00AF3120
:1004F00072278031402CF130AD00B130AE00AF3109
:1005000072278031E1302000B800B530B9000D30DD
:10051000BA00B530BB006E30BC00A830BD006E30F4
:10052000BE00A830BF00A03111208031402C5030D7
:10053000AD00B330AE00AF3172278031402C0330B4
:10054000AD00B230AE00AF3172278031EA3020000A
:10055000B800B530B9000D30BA00B630BB006E300F
:10056000BC00A830BD006E30BE00A830BF00A03176
:1005700011208031402C5030AD00B330AE00AF318F
:1005800072278031402C1530AD00B230AE00AF3153
:1005900072278031F3302000B800B530B9001D302B
:1005A000BA00B630BB006E30BC00A830BD006E3063
:1005B000BE00A830BF00A03111208031402C503047
:1005C000AD00B330AE00AF3172278031402C273000
:1005D000AD00B230AE00AF3172278031FC30200068
:1005E000B800B530B9004130BA00B430BB009E301D
:1005F000BC00B530BD009430BE00B330BF00A031A8
:1006000011208031412A5030AD00B330AE00AF31FF
:1006100072278031402C3930AD00B230AE00AF319E
:10062000722780312100300886003108870081015F
:1006300092302000B800B530B9007830BA00B2303E
:10064000BB007C30BC00B430BD000B30BE00B1300C
:10065000BF00A03111208031402C5030AD00B330AC
:10066000AE00AF3172278031402C5E30AD00B0302B
:10067000AE00AF317227803196302000B800B13023
:10068000B9003230BA00B430BB009330BC00B23095
:10069000BD005030BE00B430BF00A0311120803109
:1006A000402C6130AD00B330AE00AF3172278031E5
:1006B000402C7230AD00B330AE00AF3172278031C4
:1006C000402C7530AD00B030AE00AF3172278031B4
:1006D00096302000B800B130B9003230BA00B430E2
:1006E000BB009330BC00B230BD005030BE00B4300F
:1006F000BF00A03111208031402C3430AD00B1302A
:10070000AE00AF317227803196302000B800B13092
:10071000B9003230BA00B430BB008530BC00B23012
:10072000BD005030BE00B430BF00A0311120803178
:10073000402C4F30AD00A930AE00AF317227803170
:1007400096302000B800B130B9003230BA00B43071
:10075000BB008130BC00B230BD005030BE00B430B0
:10076000BF00A03111208031402C3408B200B30109
:100770003308003A0319BD2B402C32082A3A0319DA
:10078000992B173A03197D2B7C3A03199A28033ABF
:100790000319BE28013A0319E228073A031906296A
:1007A000013A03192A29033A03194E29013A031978
:1007B00072290F3A03199629013A0319BA29033A03
:1007C0000319DE29013A0319022A073A0319262AD6
:1007D000013A0319512A033A03197B2A013A0319F2
:1007E0009F2A1F3A0319C32A013A0319E72A033A39
:1007F00003190B2B013A0319352B323A0319B6288A
:10080000033A0319DA28013A0319FE28073A0319B3
:100810002229013A03194629033A03196A29013AA0
:1008200003198E290F3A0319B229013A0319D6295F
:10083000033A0319FA29013A03191E2A073A031940
:10084000492A013A0319732A033A0319972A013AEC
:100850000319BB2A1F3A0319DF2A013A0319032B94
:10086000033A03192D2B073A0319512B033A0319A5
:10087000592B013A0319612B0D3A03199228402C88
:1008800008002100C400C301A92F20000F19492C22
:100890004A2C652CE9302100AD00A830AE00AF3104
:1008A000722784312100C301C30A44088600023044
:1008B00087008101360886000230870081013508F3
:1008C0008600023087008101810A20006A0803192E
:1008D0006A2C6B2C832FA331F92384312100B900BA
:1008E0003908BB00522F010098302100AD00B43010
:1008F000AE00AF31722784312100440886000230F7
:1009000087008101810A3508860002308700810155
:10091000810A3608860002308700810102302100FA
:10092000BA000430B900BA30890B942CB90B942C5E
:10093000BA0B942C00002100C301C30A832FCF30CF
:10094000AD00A830AE00AF31722784319630200060
:10095000AE00B130AF006E30B000A830B100E13071
:10096000B200B030B3006E30B400A830B500A6318C
:10097000532684312100440886000230870081011B
:10098000810A02302100BA000430B900BA30890B64
:10099000C72CB90BC72CBA0BC72C00002100C30110
:1009A000C30A3508860002308700810122008C13BB
:1009B000832FB330AD00A830AE00AF317227843141
:1009C00096302000AE00B130AF006E30B000A830DD
:1009D000B1008530B200B230B3006E30B400A83040
:1009E000B500A63153268431210044088600023028
:1009F00087008101810A3508860002308700810165
:100A00003608860002308700810102302100BA00DA
:100A10000430B900BA30890B0B2DB90B0B2DBA0B72
:100A20000B2D00002100C301C30A22008C17832F65
:100A30004A30AD00A830AE00AF3172278431963015
:100A40002000AE00B130AF006E30B000A830B10071
:100A50008130B200B230B3006E30B400A830B500BF
:100A6000A6315326843121004408860002308700D5
:100A70008101810A02302100BA000430B900BA3085
:100A8000890B402DB90B402DBA0B402D00002100E1
:100A9000C301C30A350886000230870081012200A5
:100AA0008C13832F3630AD00A930AE00AF317227E2
:100AB000843196302000AE00B130AF006E30B0000F
:100AC000A830B100FA30B200B330B3006E30B400D9
:100AD000A830B500A6315326843121004408860091
:100AE000023087008101810A3508860002308700C4
:100AF000810136088600023087008101810A0230B8
:100B00002100BA000430B900BA30890B852DB90B29
:100B1000852DBA0B852D00002100C301C30A2200D8
:100B20008C17832F0030AD00B030AE00AF3172278C
:100B3000843196302000AE00B130AF006E30B0008E
:100B4000A830B100F630B200B330B3006E30B4005C
:100B5000A830B500A6315326843121004408860010
:100B6000023087008101810A350886000230870043
:100B7000810136088600023087008101810A023037
:100B80002100BA000430B900BA30890BC52DB90B69
:100B9000C52DBA0BC52D00002100C301C30A2200D8
:100BA0008C13832F8831002084312100B90039084B
:100BB000BC0061303C06031DDE2DDF2D222E83306C
:100BC000AD00B130AE00AF3172278431210044084E
:100BD0008600023087008101810A350886000230D4
:100BE0008700810137088600023087008101810A71
:100BF0003608860002308700810102302100BA00E9
:100C00000430B900BA30890B032EB90B032EBA0B8E
:100C1000032E00002100C301C30A05302000B800E4
:100C2000B630B900A530BA00B330BB006E30BC009E
:100C3000A830BD006E30BE00A830BF00A03111202A
:100C40008431832F1D30AD00A930AE00AF31722743
:100C500084319B2CAD317B2584312100B9003908CA
:100C6000BD0075303D06031D362E372E512E303017
:100C7000AD00B030AE00AF3172278431210044089E
:100C80008600023087008101810A35088600023023
:100C90008700810137088600023087008101810AC0
:100CA000892C1D30AD00A930AE00AF3172278431E0
:100CB0009B2CAD31762584312100B9003908BE0066
:100CC00076303E06031D652E662E6E2E4730AD0033
:100CD000B030AE00AF31722784313E2E1D30AD00F2
:100CE000A930AE00AF31722784319B2CAD31712514
:100CF00084312100B9003908BF0077303F06031D59
:100D0000822E832E9C2E1830AD00B030AE00AF3155
:100D10007227843121004408860002308700810157
:100D2000810A350886000230870081013708860075
:100D3000023087008101892C1D30AD00A930AE0042
:100D4000AF31722784319B2CAD3180258431210055
:100D5000B9003908C0003D304006031DB02EB12E49
:100D6000F32E8C30AD00B030AE00AF31722784313D
:100D7000210044088600023087008101810A35087D
:100D80008600023087008101370886000230870024
:100D9000810136088600023087008101023021007F
:100DA000BA000430B900BA30890BD42EB90BD42E56
:100DB000BA0BD42E00002100C301C30A96302000D4
:100DC000B800B130B9008530BA00B230BB006E3027
:100DD000BC00A830BD006E30BE00A830BF00A031FE
:100DE00011208431832F1D30AD00A930AE00AF310A
:100DF000722784319B2CAD316C2584312100B900E0
:100E00003908C1002A304106031D072F082F4A2F39
:100E10006F30AD00A830AE00AF31722784312100B1
:100E200044088600023087008101810A3508860067
:100E30000230870081013708860002308700810177
:100E40003608860002308700810102302100BA0096
:100E50000430B900BA30890B2B2FB90B2B2FBA0BEA
:100E60002B2F00002100C301C30A96302000B800D8
:100E7000B130B9008130BA00B230BB006E30BC0076
:100E8000A830BD006E30BE00A830BF00A0311120D8
:100E90008431832F1D30AD00A930AE00AF317227F1
:100EA00084319B2C3B08B900BA013A08003A031977
:100EB0005A2F832F39082A3A0319FB2E1A3A03199D
:100EC000732C013A0319742C043A0319922D033A36
:100ED00003199F2C013A0319D92C0F3A0319522DEB
:100EE000013A0319182D043A0319A42E5C3A031988
:100EF000D22D143A03192A2E033A0319592E013A16
:100F00000319762E832F21003708860002308700D0
:100F1000010803198C2F8D2FA92F3F30A5317D2576
:100F200084312100B9003908C2003808B00002300D
:100F3000B100420880318F20843105302100BA0091
:100F40000F30B900F130890BA32FB90BA32FBA0BC7
:100F5000A32F210043080319AE2FAF2F452C080003
:100F6000210034088600350887000108031DB92FC9
:100F7000BA2FC12FA230AD00B030AE00AF31722712
:100F8000873121003008860031088700810132084E
:100F90008600330887008101340886003508870001
:100FA0008101360886003708870001308100003053
:100FB000AE31532687310030AE31602687310030A4
:100FC000AE316D2687310030AE3146268731003094
:100FD000AE317A2687310030AE3187268731003036
:100FE000AE31942687310030AE31A1268731220000
:100FF0008C138D1208003F30A5317D258731080004
:101000006130A5317D258831080055302000B800B9
:10101000B630B900B630BA00B330BB008330BC0084
:10102000B330BD006E30BE00A830BF00A0312A2012
:1010300088310130AE317A26883106302200C20074
:101040001330C100AD30890B2328C10B2328C20BFC
:10105000232800320030AE317A2688310B3022004E
:10106000C2002630C1005D30890B3428C10B342802
:10107000C20B342800320C30A131272188312000E6
:1010800024082500C200200023082500C1005D308F
:101090002100AD00B630AE00250042082100B000AE
:1010A000250041082100AF00BA30A431BE248831A8
:1010B00021002E082500B60021002D082500B500CE
:1010C0004208803A2200C10083304102031D6B2890
:1010D00020302500410203186E286F287A2822004C
:1010E0008C177A302100AD00B530AE00AF317227D9
:1010F0008831B42855302100B000B630B100CA3074
:10110000B2000230B300C730B4000230B5009831ED
:101110006B20883155302000AE00B630AF00B630BD
:10112000B000B330B100BA30B2000230B3006E305C
:10113000B400A830B500A6315326883122008C13A4
:10114000C9302100B8000230B900CA30BA000230FC
:10115000BB00C730BC000230BD00C830BE0002304A
:10116000BF00A7314D27883129302200C2009630B8
:10117000C1007F30890BBA28C10BBA28C20BBA282C
:101180008731FB2788312200C10041082500C400B7
:1011900043082200C100C20141082100B000220022
:1011A00042082100B1002500440880318F20883199
:1011B000AE31D82688312200C10041082500C50083
:1011C000CA302200C10041082100B000C83022000E
:1011D000C20042082100B100C6302200C30043080B
:1011E0002100B200250045082200C4004408210067
:1011F000B300C9309A316D22883125004A0803199D
:1012000002290329BE29B4302000B800B530B90046
:10121000B630BA00B330BB00C730BC00B330BD003D
:101220006E30BE00A830BF00A0312A2088310130C6
:10123000AE317A26883106302200C2001330C10058
:10124000AD30890B2129C10B2129C20B2129003284
:101250000030AE317A2688310B302200C2002630B1
:10126000C1005D30890B3229C10B3229C20B3229F2
:1012700000320C30A13127218831200024082500BC
:10128000C200200023082500C1005D302100AD0010
:10129000B630AE00250042082100B000250041080C
:1012A0002100AF00BA30A431BE24883121002E08BD
:1012B0002500B80021002D082500B7004208803A1B
:1012C0002200C10082304102031D6929BC30250083
:1012D000410203186C296D29782922008C13A5304E
:1012E0002100AD00B430AE00AF3172278831B22991
:1012F000B4302100B000B530B100CA30B2000230C5
:10130000B300C730B4000230B50098316B2088318B
:10131000B4302000B800B530B900B630BA00B330F0
:10132000BB00BA30BC000230BD006E30BE00A83039
:10133000BF00A0312A20883122008C17C93021003B
:10134000B8000230B900CA30BA000230BB00C73062
:10135000BC000230BD00C830BE000230BF00A73163
:101360004D27883129302200C2009630C1007F30DD
:10137000890BB829C10BB829C20BB8298731FB27C3
:1013800088312200C10041082500C4004308220022
:10139000C100C20141082100B00022004208210022
:1013A000B1002500440880318F208831AE31D82625
:1013B00088312200C10041082500C500CA30220042
:1013C000C10041082100B000C8302200C20042081C
:1013D0002100B100C6302200C30043082100B20042
:1013E000250045082200C40044082100B300C9308C
:1013F0009A316D22883125004A080319002A012AF2
:10140000CD2ABD302000B800B530B9008630BA0012
:10141000B530BB006E30BC00A830BD006E30BE00E1
:10142000A830BF00A0312A2088310B302200C20032
:101430002630C1005D30890B1B2AC10B1B2AC20B51
:101440001B2A00320130AE317A2688310630220064
:10145000C2001330C100AD30890B2C2AC10B2C2ADD
:10146000C20B2C2A00320030AE317A2688313D3052
:101470002200C200E130C1003F30890B3D2AC10B80
:101480003D2AC20B3D2A00320130AE317A26883126
:1014900006302200C2001330C100AD30890B4E2A45
:1014A000C10B4E2AC20B4E2A00320030AE317A26D2
:1014B000883110302200C2003930C1000D30890B54
:1014C0005F2AC10B5F2AC20B5F2A00320130A131B3
:1014D0008B218831003A03196E2A6F2A8A2A01303B
:1014E000A131AE218831003A0319772A782A8A2A55
:1014F0000030A131D1218831003A0319802A812A94
:101500008A2AB2302100AD00B430AE00AF3172276C
:101510008831B82A2500CA010030AE317A268831D8
:101520000030AE3187268831BD302100B000B530A3
:10153000B100CA30B2000230B300C730B40002308C
:10154000B50098316B208831C9302100B8000230D5
:10155000B900CA30BA000230BB00C730BC0002304C
:10156000BD00C830BE000230BF00A7314D27883112
:1015700015302200C2004B30C100BE30890BBE2A9C
:10158000C10BBE2AC20BBE2A00000030AE317A2643
:1015900088310030AE31872688318731FB2788318A
:1015A0002200C10041082500C40043082200C100F8
:1015B000C20141082100B000220042082100B10010
:1015C0002500440880318F208831AE31D8268831FB
:1015D0002200C10041082500C500CA302200C10018
:1015E00041082100B000C8302200C200420821009A
:1015F000B100C6302200C30043082100B20025001C
:1016000045082200C40044082100B300C9309A31C3
:101610006D22883125004A0803190F2B102B7E2BD1
:10162000CF302000B800B530B900D730BA00B330A1
:10163000BB008A30BC00B430BD009430BE00B33073
:10164000BF00A0312A2088310130AE317A2688319E
:1016500006302200C2001330C100AD30890B2E2BA2
:10166000C10B2E2BC20B2E2B00320030AE317A264E
:10167000883103302100AD00A930AE00AF317227B0
:101680008831250049089031452088312200C10069
:1016900041082500C7004708031D4F2B502B762B10
:1016A000CA01CF302100B000B530B100CA30B2005D
:1016B0000230B300C730B4000230B50098316B205F
:1016C0008831C9302100B8000230B900CA30BA00F0
:1016D0000230BB00C730BC000230BD00C830BE00C5
:1016E0000230BF00A7314D2788317E2BBF3021004B
:1016F000AD00B430AE00AF31722788318731FB279F
:1017000088312200C10041082500C400430822009E
:10171000C100C20141082100B0002200420821009E
:10172000B1002500440880318F208831AE31D826A1
:1017300088312200C10041082500C500CA302200BE
:10174000C10041082100B000C8302200C200420898
:101750002100B100C6302200C30043082100B200BE
:10176000250045082200C40044082100B300C93008
:101770009A316D22883125004A080319C02BC12BEC
:10178000412CD8302000B800B530B900C630BA00BE
:10179000B530BB006E30BC00A830BD006E30BE005E
:1017A000A830BF00A0312A2088310130AE31872611
:1017B000883106302200C2001330C100AD30890BE1
:1017C000DF2BC10BDF2BC20BDF2B00320030AE3121
:1017D000872688310B302200C2002630C1005D30E0
:1017E000890BF02BC10BF02BC20BF02B0032013018
:1017F000A1318B218831003A0319FF2B002C1B2CBF
:101800000130A131AE218831003A0319082C092C8E
:101810001B2C0130A131D1218831003A0319112C40
:10182000122C1B2CCC302100AD00B430AE00AF31F7
:1018300072278831412C2500CA01D8302100B00020
:10184000B530B100CA30B2000230B300C730B400C6
:101850000230B50098316B208831C9302100B800C2
:101860000230B900CA30BA000230BB00C730BC0039
:101870000230BD00C830BE000230BF00A7314D2786
:1018800088318731FB2788312200C10041082500BB
:10189000C40043082200C100C20141082100B00079
:1018A000220042082100B1002500440880318F2029
:1018B0008831AE31D82688312200C1004108250088
:1018C000C500CA302200C10041082100B000C83064
:1018D0002200C20042082100B100C6302200C3002D
:1018E00043082100B200250045082200C400440836
:1018F0002100B300C9309A316D22883125004A0891
:101900000319832C842C042DE1302000B800B5305D
:10191000B9000D30BA00B530BB006E30BC00A83045
:10192000BD006E30BE00A830BF00A0312A20883133
:101930000130AE31AE26883106302200C2001330AD
:10194000C100AD30890BA22CC10BA22CC20BA22C62
:1019500000320030AE31AE2688310B302200C2009A
:101960002630C1005D30890BB32CC10BB32CC20BE8
:10197000B32C00320030A1318B218831003A031999
:10198000C22CC32CDE2C0030A131AE218831003AAC
:101990000319CB2CCC2CDE2C0030A131D121883185
:1019A000003A0319D42CD52CDE2CD9302100AD00FF
:1019B000B430AE00AF3172278831042D2500CA0142
:1019C000E1302100B000B530B100CA30B2000230C1
:1019D000B300C730B4000230B50098316B208831B5
:1019E000C9302100B8000230B900CA30BA00023054
:1019F000BB00C730BC000230BD00C830BE000230A2
:101A0000BF00A7314D2788318731FB27883122005D
:101A1000C10041082500C40043082200C100C201E2
:101A200041082100B000220042082100B100250039
:101A3000440880318F208831AE31D8268831220089
:101A4000C10041082500C500CA302200C10041087C
:101A50002100B000C8302200C20042082100B100BD
:101A6000C6302200C30043082100B200250045080B
:101A70002200C40044082100B300C9309A316D220D
:101A8000883125004A080319462D472DC12DEA301B
:101A90002000B800B530B9000D30BA00B630BB0038
:101AA0006E30BC00A830BD006E30BE00A830BF0054
:101AB000A0312A2088310130AE3194268831193086
:101AC0002200C2005A30C100B130890B652DC10B14
:101AD000652DC20B652D00320030AE319426883161
:101AE0000B302200C2002630C1005D30890B762DFC
:101AF000C10B762DC20B762D00320130A1318B2126
:101B00008831003A0319852D862DA12D0130A13190
:101B1000AE218831003A03198E2D8F2DA12D013071
:101B2000A131D1218831003A0319972D982DA12D8B
:101B3000E6302100AD00B430AE00AF3172278831FD
:101B4000C12DEA302100D700B530D800CA302200BC
:101B5000C10041082100D900C7302200C20042085C
:101B60002100DA00C9302200C30043082100DB0055
:101B7000C8302200C40044082100DC009E31AE269B
:101B800088318731FB2788312200C10041082500B8
:101B9000C40043082200C100C20141082100B00076
:101BA000220042082100B1002500440880318F2026
:101BB0008831AE31D82688312200C1004108250085
:101BC000C500CA302200C10041082100B000C83061
:101BD0002200C20042082100B100C6302200C3002A
:101BE00043082100B200250045082200C400440833
:101BF0002100B300C9309A316D22883125004A088E
:101C00000319032E042E842EF3302000B800B530C3
:101C1000B9001D30BA00B630BB006E30BC00A83031
:101C2000BD006E30BE00A830BF00A0312A20883130
:101C30000130AE31A126883119302200C2005A305D
:101C4000C100B130890B222EC10B222EC20B222ED5
:101C500000320030AE31A12688310B302200C200A4
:101C60002630C1005D30890B332EC10B332EC20BE1
:101C7000332E00320030A1318B218831003A031914
:101C8000422E432E5E2E0030A131AE218831003A23
:101C900003194B2E4C2E5E2E0030A131D1218831FC
:101CA000003A0319542E552E5E2EF3302100AD005C
:101CB000B430AE00AF3172278831842E2500CA01BE
:101CC000F3302100B000B530B100CA30B2000230AC
:101CD000B300C730B4000230B50098316B208831B2
:101CE000C9302100B8000230B900CA30BA00023051
:101CF000BB00C730BC000230BD00C830BE0002309F
:101D0000BF00A7314D2788318731FB27883122005A
:101D1000C10041082500C40043082200C100C201DF
:101D200041082100B000220042082100B100250036
:101D3000440880318F208831AE31D8268831220086
:101D4000C10041082500C500CA302200C100410879
:101D50002100B000C8302200C20042082100B100BA
:101D6000C6302200C30043082100B2002500450808
:101D70002200C40044082100B300C9309A316D220A
:101D8000883125004A080319C62EC72E6E2FFC3055
:101D90002000B800B530B9004130BA00B430BB0003
:101DA0009E30BC00B530BD009430BE00B330BF00E3
:101DB000A0312A208831A031E92088310330220067
:101DC000C2000830C1007730890BE42EC10BE42E2D
:101DD000C20BE42E02302000A3000030A400A43186
:101DE00028248831AF314A27883103302000A300EE
:101DF0000030A400A43128248831AF314A2788312B
:101E0000A030A3316D23883115302200C2004B3041
:101E1000C100BE30890B0A2FC10B0A2FC20B0A2F3B
:101E20000000FC302000B800B530B9004130BA00E5
:101E3000B430BB00A030BC000230BD009430BE0006
:101E4000B330BF00A0312A208831250049089031E5
:101E5000452088312200C10041082500C7004708FD
:101E6000031D332F342F662FCA01FC302100B00030
:101E7000B530B100CA30B2000230B300C730B40090
:101E80000230B50098316B208831C9302100B8008C
:101E90000230B900CA30BA000230BB00C730BC0003
:101EA0000230BD00C830BE000230BF00A7314D2750
:101EB000883129302200C2009630C1007F30890B62
:101EC0005F2FC10B5F2FC20B5F2F6E2F00302100E1
:101ED000AD00B530AE00AF31722788318731FB27B6
:101EE00088312200C10041082500C40043082200B7
:101EF000C100C20141082100B000220042082100B7
:101F0000B1002500440880318F208831AE31D826B9
:101F100088312200C10041082500C500CA302200D6
:101F2000C10041082100B000C8302200C2004208B0
:101F30002100B100C6302200C30043082100B200D6
:101F4000250045082200C40044082100B300C93020
:101F50009A316D22883125004A080319B02FB22F1B
:101F600092318B2A92302000B800B530B900783019
:101F7000BA00B230BB007C30BC00B430BD000B30C6
:101F8000BE00B130BF00A0312A2088310130AE310F
:101F9000532688310030AE3146268831A1314821A0
:101FA0008831C9302100B0000230B100CA30B2001F
:101FB0000230B300983104208831CA302100B000CB
:101FC0000230B100C730B2000230B300C930B400F3
:101FD0000230B500C830B6000230B7008731B027F4
:101FE000883129302200C2009630C1007F30890B31
:101FF000F72FC10BF72FC20BF72FB02F80314A28D4
:102000002000911108002000AE010730AF00003021
:10201000B000AE31BB26903134302000A900F13041
:10202000890B1028A90B1028003220000D0CA900E4
:10203000A90C290C0139AA00AB012A08AC002B0815
:10204000AD002D08A4002C08A3003008A6002F081E
:10205000A5002E08A131F42190312000A900290803
:10206000AE0068302000A900E430890B3528A90BA8
:1020700035280000FF302000AF07FF30B03DB01F13
:102080004228432809282E0808002000A800A9019A
:10209000AA01280803194D284E28B128AB286A0840
:1020A000031953285428AB28A331F9239031200079
:1020B000A5002508A7009528010002302000A600F1
:1020C0000430A500BA30890B6328A50B6328A60B42
:1020D000632800002000A901A90AAA01AA0AAB28C6
:1020E00002302000A6000430A500BA30890B762803
:1020F000A50B7628A60B762800002000A9016D28E4
:1021000002302000A6000430A500BA30890B8628D2
:10211000A50B8628A60B862800002000A901A90A85
:10212000AA01AA0A22008C13AB282708A500A60141
:102130002608003A03199D28AB282508303A0319D0
:102140005C28023A03195D28013A031970280A3AFB
:1021500003198028AB2820002A080319B028B128C9
:102160004F282808031DB528B628D828D2280130C2
:10217000A03178209031003A0319BF28C028C42824
:102180002000A901AA01AA0A0130A03193209031B0
:10219000003A0319CC28CD28D2282000A901A90A89
:1021A000AA01AA0A20002A080319D728D828B72884
:1021B000290808002000CA003F08D3004008D400C6
:1021C0004108D5004208D6004308D7004408D8008B
:1021D0004508D9004608DA005330860000308700F1
:1021E000473FC700C71BF528F7280130F828003003
:1021F0002000C800C9014808D1004908D200510890
:1022000052040319042905292329D309D409D5091E
:10221000D609D709D809D909DA09D30A031D232910
:10222000D40A031D2329D50A031D2329D60A031D19
:102230002329D70A031D2329D80A031D2329D90AD4
:10224000031D2329DA0A2100E21B272928292C292A
:10225000FD30E305FF30E4056208803A2000C70046
:1022600080304702031D3729013021006102031825
:102270003A293B29412901302000CD000030CE0011
:102280004929210062082000CE00210061082000B9
:10229000CD00230056082000D00023005508200060
:1022A000CF0051085204031D562957295C292100EB
:1022B000631D5B295C296129FF302000CF07FF30B7
:1022C000D03D1F302000DB000030DC002500EA019B
:1022D000D229FF302000DB07FF30DC3D0A30A300AD
:1022E000A401A501A601A701A801A901AA015308FB
:1022F000AB005408AC005508AD005608AE005708B6
:10230000AF005808B0005908B1005A08B20099311E
:102310008021903120002408B7002308B600A031A6
:10232000AE20903120003608303EC7005B08CB3E1F
:1023300086000230870047088100FF30CD07FF305C
:10234000CE3DFF30CF07FF30D03D0A30A300A401BF
:10235000A501A601A701A801A901AA015308AB0084
:102360005408AC005508AD005608AE005708AF0041
:102370005808B0005908B1005A08B2009B316B23CD
:10238000903120002308D3002408D4002508D5006C
:102390002608D6002708D7002808D8002908D90021
:1023A0002A08DA0020005C08803AC7008030470223
:1023B000031DDC2901305B02031CDF29E0290D2A03
:1023C0002000530854045504560457045804590473
:1023D0005A04031DEC29ED2969294E08803AC700EB
:1023E00080304702031DF62901304D020318F929F8
:1023F000FA29692920005008803AC7008030470236
:10240000031D042A01304F02031C072A082A0D2A43
:102410002100E3180C2A0D2A6929200051085204D2
:10242000031D132A142A192A2100631D182A192AA8
:10243000362AFF302000DB07FF30DC3D5108520414
:10244000031D232A242A292A2B30CB000030CC005C
:102450002D2A2D30CB000030CC004B08C7005B0884
:10246000CB3E8600023087004708810020005B08D1
:10247000CB3EC7004708B6005008B8004F08B70069
:102480004A08A731A427903120003708C000360839
:10249000BF000800AE31F72692318B170B172500CD
:1024A000CA01C701C901BF01C801C80AB901B90AF7
:1024B000C601C30115302200C2004B30C100BE303E
:1024C000890B602AC10B602AC20B602A0000200021
:1024D0008E1A6B2A6C2A722A2500B901AE31C926E0
:1024E0009231752AAE310A26923120000E1C792ACB
:1024F0007A2A7E2A2500C001C00A802A2500C00150
:1025000020008E18842A852A892A2500BF01BF0A47
:102510008B2A2500BF0196302000B800B130B900E9
:102520006E30BA00B430BB009330BC00B230BD0096
:102530005030BE00B430BF00A0312A2092310330A9
:102540002200C2000830C1007730890BA52AC10BD8
:10255000A52AC20BA52A96302000B800B130B900D8
:102560003230BA00B430BB009330BC00B230BD0092
:102570005030BE00B430BF00A03111209231033082
:102580002200C2000830C1007730890BC52AC10B78
:10259000C52AC20BC52A22008C138D12EB2ACA3021
:1025A0002200C10041082100B500C8302200C2004D
:1025B00042082100B600C6302200C30043082100B3
:1025C000B700C3302200C40044082100B800C9305D
:1025D00084314124923125004A080319F02AF12A56
:1025E000CF2A01302000A3000030A400A431282409
:1025F000923103302200C2000830C1007730890BCD
:10260000FF2AC10BFF2AC20BFF2A2500C801A231F5
:10261000192292312500CA01CA0A0030AE31532670
:1026200092310030AE31602692310130AE316D26EC
:10263000923103302200C2000830C1007730890B8C
:102640001F2BC10B1F2BC20B1F2B96302000B80075
:10265000B130B9005F30BA00B430BB009330BC0079
:10266000B230BD005030BE00B430BF00A0311120E8
:10267000923103302200C2000830C1007730890B4C
:102680003F2BC10B3F2BC20B3F2B05302000B80066
:10269000B630B900A530BA00B330BB006E30BC0014
:1026A000A830BD006E30BE00A830BF00A0312A2087
:1026B00092310130AE317A2692310130AE31872627
:1026C000923115302200C2004B30C100BE30890B60
:1026D000672BC10B672BC20B672B00000130AE319B
:1026E0004626923129302200C2009630C1007F3048
:1026F000890B782BC10B782BC20B782B0130A131C1
:102700008B219231003A0319862B872BA22B0130A3
:10271000A131AE219231003A03198F2B902BA22BBD
:102720000130A131D1219231003A0319982B992B14
:10273000A22B1A302100AD00B530AE00AF317227A8
:102740009231D02B2500CA010030AE317A26923169
:102750000030AE318726923105302100B000B6300E
:10276000B100CA30B2000230B300C730B40002304A
:10277000B50098316B209231C9302100B800023089
:10278000B900CA30BA000230BB00C730BC0002300A
:10279000BD00C830BE000230BF00A7314D279231C6
:1027A0008731FB2792312200C10041082500C40077
:1027B00043082200C100C20141082100B0002200EC
:1027C00042082100B1002500440880318F20923159
:1027D000AE31D82692312200C10041082500C50043
:1027E000CA302200C10041082100B000C8302200D8
:1027F000C20042082100B100C6302200C3004308D5
:102800002100B200250045082200C4004408210030
:10281000B300C9309A316D22923115302200C200C6
:102820004B30C100BE30890B132CC10B132CC20BD3
:10283000132C00000030AE317A2692310030AE31D8
:102840008726923125004A080319272C282C9B2C17
:1028500015302000B800B630B900A530BA00B2304B
:10286000BB006E30BC00A830BD006E30BE00A8308A
:10287000BF00A0312A2092310030AE317A26923149
:102880000030AE31872692310B302200C200263054
:10289000C1005D30890B4A2CC10B4A2CC20B4A2C5B
:1028A00000320130A1318B219231003A031D592CA5
:1028B0005A2C752C0130A131AE219231003A031D02
:1028C000622C632C752C0130A131D1219231003A58
:1028D000031D6B2C6C2C752C26302100AD00B530FF
:1028E000AE00AF31722792319B2C2500CA01153002
:1028F0002100B000B630B100CA30B2000230B300DF
:10290000C730B4000230B50098316B209231C93025
:102910002100B8000230B900CA30BA000230BB0052
:10292000C730BC000230BD00C830BE000230BF005E
:10293000A7314D2792318731FB2792312200C10008
:1029400041082500C40043082200C100C20141081B
:102950002100B000220042082100B10025004408F7
:1029600080318F209231AE31D82692312200C100C1
:1029700041082500C500CA302200C10041082100DD
:10298000B000C8302200C20042082100B100C630A9
:102990002200C30043082100B200250045082200A0
:1029A000C40044082100B300C9309A316D2292312D
:1029B00025004A080319DE2C9C31702C9C31E42C34
:1029C0003E302100AD00B530AE00AF3172279431FA
:1029D0008731FB2794312200C10041082500C40043
:1029E00043082200C100C20141082100B0002200BA
:1029F00042082100B1002500440880318F20943125
:102A0000AE31D82694312200C10041082500C5000E
:102A1000CA302200C10041082100B000C8302200A5
:102A2000C20042082100B100C6302200C3004308A2
:102A30002100B200250045082200C40044082100FE
:102A4000B300C9309A316D22943125004A08031928
:102A50002A2D2B2D962D35302000B800B630B90028
:102A60001430BA00B430BB006E30BC00A830BD00DA
:102A70006E30BE00A830BF00A0312A209431013052
:102A8000AE317A26943106302200C2001330C100E4
:102A9000AD30890B492DC10B492DC20B492D003298
:102AA0000030AE317A269431250040080319592DA3
:102AB0005A2D962D49089031452094312200C100AD
:102AC00041082500C7004708031D672D682D8E2D7E
:102AD000CA0135302100B000B630B100CA30B200B2
:102AE0000230B300C730B4000230B50098316B201B
:102AF0009431C9302100B8000230B900CA30BA00A0
:102B00000230BB00C730BC000230BD00C830BE0080
:102B10000230BF00A7314D279431962D4A30210055
:102B2000AD00B530AE00AF31722794318731FB274D
:102B300094312200C10041082500C400430822004E
:102B4000C100C20141082100B0002200420821005A
:102B5000B1002500440880318F209431AE31D82651
:102B600094312200C10041082500C500CA3022006E
:102B7000C10041082100B000C8302200C200420854
:102B80002100B100C6302200C30043082100B2007A
:102B9000250045082200C40044082100B300C930C4
:102BA0009A316D22943125004A080319D82DD92D68
:102BB000472E3D302000B800B630B900A930BA0029
:102BC000B530BB006E30BC00A830BD006E30BE001A
:102BD000A830BF00A0312A2094310130AE317A26CE
:102BE000943115302200C2004B30C100BE30890B39
:102BF000F72DC10BF72DC20BF72D00000030AE31C1
:102C00007A26943115302200C2004B30C100BE300C
:102C1000890B082EC10B082EC20B082E00000130B4
:102C2000A1318B219431003A0319172E182E212E31
:102C300056302100AD00B530AE00AF31722794316F
:102C4000472E2500CA013D302100B000B630B1004A
:102C5000CA30B2000230B300C730B4000230B50051
:102C600098316B209431C9302100B8000230B9008E
:102C7000CA30BA000230BB00C730BC000230BD0011
:102C8000C830BE000230BF00A7314D2794318731D4
:102C9000FB2794312200C10041082500C4004308ED
:102CA0002200C100C20141082100B00022004208F8
:102CB0002100B1002500440880318F209431AE31CD
:102CC000D82694312200C10041082500C500CA3031
:102CD0002200C10041082100B000C8302200C2001B
:102CE00042082100B100C6302200C3004308210081
:102CF000B200250045082200C40044082100B300AA
:102D0000C9309A316D22943125004A080319892E61
:102D10008A2E012F45302000B800B630B900483067
:102D2000BA00B130BB006E30BC00A830BD006E30C0
:102D3000BE00A830BF00A0312A2094310130AE314E
:102D40007A26943115302200C2004B30C100BE30CB
:102D5000890BA82EC10BA82EC20BA82E0000003094
:102D6000AE317A26943115302200C2004B30C100BA
:102D7000BE30890BB92EC10BB92EC20BB92E000083
:102D80000030A1318B219431003A0319C82EC92E8D
:102D9000DB2E0130A131AE219431003A0319D12E3E
:102DA000D22EDB2E62302100AD00B530AE00AF3147
:102DB00072279431012F2500CA0145302100B0004F
:102DC000B630B100CA30B2000230B300C730B40030
:102DD0000230B50098316B209431C9302100B80021
:102DE0000230B900CA30BA000230BB00C730BC00A4
:102DF0000230BD00C830BE000230BF00A7314D27F1
:102E000094318731FB2794312200C100410825000D
:102E1000C40043082200C100C20141082100B000E3
:102E2000220042082100B1002500440880318F2093
:102E30009431AE31D82694312200C10041082500DA
:102E4000C500CA302200C10041082100B000C830CE
:102E50002200C20042082100B100C6302200C30097
:102E600043082100B200250045082200C4004408A0
:102E70002100B300C9309A316D22943125004A08EF
:102E80000319432F442FBB2F4D302000B800B6301C
:102E9000B9005C30BA00B130BB006E30BC00A83065
:102EA000BD006E30BE00A830BF00A0312A20943192
:102EB0000130AE317A26943115302200C2004B30F9
:102EC000C100BE30890B622FC10B622FC20B622F73
:102ED00000000030AE317A26943115302200C20055
:102EE0004B30C100BE30890B732FC10B732FC20B47
:102EF000732F00000030A131AE219431003A031944
:102F0000822F832F952F0130A131D1219431003AA6
:102F100003198B2F8C2F952F6E302100AD00B5300B
:102F2000AE00AF3172279431BB2F2500CA014D305E
:102F30002100B000B630B100CA30B2000230B30098
:102F4000C730B4000230B50098316B209431C930DD
:102F50002100B8000230B900CA30BA000230BB000C
:102F6000C730BC000230BD00C830BE000230BF0018
:102F7000A7314D2794318731FB2794312200C100BE
:102F800041082500C40043082200C100C2014108D5
:102F90002100B000220042082100B10025004408B1
:102FA00080318F209431AE31D82694312200C10077
:102FB00041082500C500CA302200C1004108210097
:102FC000B000C8302200C20042082100B100C63063
:102FD0002200C30043082100B2002500450822005A
:102FE000C40044082100B300C9309A316D229431E5
:102FF00025004A080319FE2F883105288831C0288A
:1030000016302100970008002100B7016428200035
:103010000F190B280C282128A2302100AD00B03058
:10302000AE00AF31722798312100B701B70A3008DE
:103030008600310887008101320886003308870046
:10304000810120006A080319262827286428A33153
:10305000F92398312100B4003408B6005428010047
:1030600064287030AD00B130AE00AF3172279831B6
:10307000210030088600310887008101320886006F
:1030800033088700810102302100B5000430B4000C
:10309000BA30890B4928B40B4928B50B49280000E0
:1030A0002100B701B70A64283608B400B501350815
:1030B000003A03195C2864283408303A03192F2891
:1030C000043A0319312864282100370803196928B4
:1030D0006A28072808003430860002308700C13093
:1030E00084000030850014302100B60016001A005C
:1030F000B60B7628DD30860001308700B7308400BB
:10310000003085000A30B60016001A00B60B84287D
:103110000130AE31602698310130AE316D269831E4
:103120000030AE31532698310030AE31462698310A
:10313000210031082000AF00210030082000AE003F
:103140006F30B000B230B1000B30B200B130B3001C
:103150006E30B400A830B500A63153269831C13086
:103160002000B3000030B400210031082000B60078
:10317000210030082000B500AF31882798312000A9
:1031800034082100D600200033082100D50056085D
:103190002000B400210055082000B300B730B5006E
:1031A0000030B600AF318827983120003408210064
:1031B000AE00200033082100AD00AF3172279831F6
:1031C000A6310B26983120000F1DE728E828E328B8
:1031D0002100320886003308870081013408860008
:1031E00035088700810108002000AB002B08A900EA
:1031F00029082100E9000030AF315D2798319C306B
:103200002000A900D730890B0329A90B032903301B
:10321000AF31CF2798311A302000A900F830890B40
:103220000F29A90B0F2900000330AF31CF279831A8
:103230001A302000A900F830890B1C29A90B1C2981
:1032400000000330AF31CF2798311A302000A90099
:10325000F830890B2929A90B292900000230AF3148
:10326000CF2798311A302000A900F830890B362971
:10327000A90B362900002830AF31CF279831023012
:103280002000AA000430A900BA30890B4529A90BF7
:103290004529AA0B452900000C30AF31CF279831C2
:1032A00002302000AA000430A900BA30890B562948
:1032B000A90B5629AA0B562900000130AF31CF27A0
:1032C000983102302000AA000430A900BA30890BDE
:1032D0006729A90B6729AA0B672900000630AF31BF
:1032E000CF27983102302000AA000430A900BA305C
:1032F000890B7829A90B7829AA0B782900000800E6
:103300002000B5012B30860000308700473FB30016
:10331000B31F8B298C29AE292000AB09AC09AD095C
:10332000AE09AF09B009B109B209AB0A031DAB2957
:10333000AC0A031DAB29AD0A031DAB29AE0A031D60
:10334000AB29AF0A031DAB29B00A031DAB29B10A93
:10335000031DAB29B20A2000B501B50A233086004F
:1033600000308700473F2000B300B31FB829B929B8
:10337000D8292000A309A409A509A609A709A80915
:10338000A909AA09A30A031DD829A40A031DD8293B
:10339000A50A031DD829A60A031DD829A70A031DBB
:1033A000D829A80A031DD829A90A031DD829AA0AC1
:1033B00020002308240425042604270428042904C3
:1033C0002A040319E429E529382AB401B40AF429A6
:1033D000A335A40DA50DA60DA70DA80DA90DAA0D29
:1033E0000130B3003308B407AA1FF729F829E829E8
:1033F0002A083202031D162A29083102031D162A43
:1034000028083002031D162A27082F02031D162A3A
:1034100026082E02031D162A25082D02031D162A32
:1034200024082C02031D162A23082B02031C192A28
:103430001A2A2A2A2308AB022408AC3B2508AD3BF4
:103440002608AE3B2708AF3B2808B03B2908B13B14
:103450002A08B23BAA36A90CA80CA70CA60CA50CEE
:10346000A40CA30C0130B402031D372A382AF82912
:10347000350803193C2A3D2A5B2AAB09AC09AD0982
:10348000AE09AF09B009B109B209AB0A031D5B2A45
:10349000AC0A031D5B2AAD0A031D5B2AAE0A031D9D
:1034A0005B2AAF0A031D5B2AB00A031D5B2AB10A1F
:1034B000031D5B2AB20A20002B08A3002C08A400DD
:1034C0002D08A5002E08A6002F08A7003008A80088
:1034D0003108A9003208AA0008002100BA004E2BCA
:1034E000883100209A312100B4003408B6006130E0
:1034F0003606031D7C2A7D2AAA2A8330AD00B1300E
:10350000AE00AF3172279A3121003A0886000230AE
:1035100087008101810A300886000230870081011E
:10352000810A32088600023087008101810A310851
:10353000860002308700810102302100B50004308E
:10354000B400BA30890BA22AB40BA22AB50BA22A66
:1035500000006A2B1D30AD00A930AE00AF317227DC
:103560009A316A2B7530A5317D259A316A2B7630D8
:10357000A5317D259A316A2B7730A5317D259A3189
:103580002100B4003408B70077303706031DC92A7C
:10359000CA2A6A2BCC30AD00B030AE00AF317227F2
:1035A0009A316A2BAD3180259A312100B40034085C
:1035B000B8003D303806031DDE2ADF2A082B8C3088
:1035C000AD00B030AE00AF3172279A310230210029
:1035D000B5000430B400BA30890BEC2AB40BEC2AE5
:1035E000B50BEC2A000096302000B800B130B900CD
:1035F0008530BA00B230BB006E30BC00A830BD00D0
:103600006E30BE00A830BF00A03111209A316A2B65
:103610001D30AD00A930AE00AF3172279A316A2B50
:10362000AD316C259A312100B4003408B9002A303C
:103630003906031D1C2B1D2B462B6F30AD00A83007
:10364000AE00AF3172279A3102302100B50004304C
:10365000B400BA30890B2A2BB40B2A2BB50B2A2BBA
:10366000000096302000B800B130B9008130BA00B7
:10367000B230BB006E30BC00A830BD006E30BE0062
:10368000A830BF00A03111209A316A2B1D30AD0047
:10369000A930AE00AF3172279A316A2B3308B400DB
:1036A000B5013508003A0319562B6A2B34082A3A1B
:1036B0000319102B173A0319D22A5C3A0319702AFE
:1036C000143A0319B22A033A0319B72A013A031923
:1036D000BC2A6A2B08002000B50123308600003088
:1036E0008700473FB300B31F762B772B992B200021
:1036F000A309A409A509A609A709A809A909AA094E
:10370000A30A031D962BA40A031D962BA50A031DCD
:10371000962BA60A031D962BA70A031D962BA80A13
:10372000031D962BA90A031D962BAA0A2000B5019A
:10373000B50A2B30860000308700473F2000B300D9
:10374000B31FA32BA42BC82B2000AB09AC09AD09D8
:10375000AE09AF09B009B109B209AB0A031DC32B09
:10376000AC0A031DC32BAD0A031DC32BAE0A031DF8
:10377000C32BAF0A031DC32BB00A031DC32BB10A11
:10378000031DC32BB20A01302000B3003308B50675
:10379000363086000030870008302000B30000304B
:1037A0001E00B30BD02B2308240425042604270471
:1037B000280429042A040319DE2BDF2B3B2CB40137
:1037C000B40AEE2BA335A40DA50DA60DA70DA80DCB
:1037D000A90DAA0D0130B3003308B407AA1FF12BBD
:1037E000F22BE22BB635B70DB80DB90DBA0DBB0DE6
:1037F000BC0DBD0D2A083202031D182C2908310208
:10380000031D182C28083002031D182C27082F022E
:10381000031D182C26082E02031D182C25082D0226
:10382000031D182C24082C02031D182C23082B021E
:10383000031C1B2C1C2C2D2C2308AB022408AC3B96
:103840002508AD3B2608AE3B2708AF3B2808B03B18
:103850002908B13B2A08B23B3614AA36A90CA80C99
:10386000A70CA60CA50CA40CA30C0130B402031DDC
:103870003A2C3B2CF22B350803193F2C402C5E2CA4
:10388000B609B709B809B909BA09BB09BC09BD0924
:10389000B60A031D5E2CB70A031D5E2CB80A031D71
:1038A0005E2CB90A031D5E2CBA0A031D5E2CBB0AEE
:1038B000031D5E2CBC0A031D5E2CBD0A20003608C9
:1038C000A3003708A4003808A5003908A6003A0864
:1038D000A7003B08A8003C08A9003D08AA00080072
:1038E00025302000B800B630B9000530BA00B43039
:1038F000BB006E30BC00A830BD006E30BE00A830EA
:10390000BF00A0312A209C310130AE317A269C3193
:1039100006302200C2001330C100AD30890B8E2C5E
:10392000C10B8E2CC20B8E2C00320030AE317A26A9
:103930009C312500400803199E2C9F2CE42C9430C8
:103940002100AD00A830AE00AF3172279C312500B8
:103950004908903145209C312200C10041082500D2
:10396000C7004708031DB52CB62CDC2CCA01253036
:103970002100B000B630B100CA30B2000230B3004E
:10398000C730B4000230B50098316B209C31C9308B
:103990002100B8000230B900CA30BA000230BB00C2
:1039A000C730BC000230BD00C830BE000230BF00CE
:1039B000A7314D279C31E42C32302100AD00B530C9
:1039C000AE00AF3172279C318731FB279C3122003A
:1039D000C10041082500C40043082200C100C20103
:1039E00041082100B000220042082100B10025005A
:1039F000440880318F209C31AE31D8269C31220082
:103A0000C10041082500C500CA302200C10041089C
:103A10002100B000C8302200C20042082100B100DD
:103A2000C6302200C30043082100B200250045082B
:103A30002200C40044082100B300C9309A316D222D
:103A40009C3125004A080319262D282D9431E82C95
:103A50002D302000B800B630B9002330BA00B430A1
:103A6000BB006E30BC00A830BD006E30BE00A83078
:103A7000BF00A0312A209C310130AE317A269C3122
:103A800006302200C2001330C100AD30890B462D34
:103A9000C10B462DC20B462D00320030AE317A26C6
:103AA0009C31250040080319562D572D262D490815
:103AB000903145209C312200C10041082500C700FB
:103AC0004708031D642D662D9431E02CCA012D306A
:103AD0002100B000B630B100CA30B2000230B300ED
:103AE000C730B4000230B50098316B209C31C9302A
:103AF0002100B8000230B900CA30BA000230BB0061
:103B0000C730BC000230BD00C830BE000230BF006C
:103B1000A7314D279C31262D2100A90020005D08EA
:103B200086008701403FDF00413FE0005F088400DE
:103B3000600885001200253A031D9F2DA02D882EB8
:103B40005D08860087010130810741310318810A31
:103B50002300D501D6012100E301E401FF30E1009B
:103B6000FF30E20020005D0886008701403FDF0053
:103B7000413FE0005F088400600885001200643A5D
:103B80000319C32DC42DD52D5D0886008701403F44
:103B9000DF00413FE0005F088400600885001200FC
:103BA000693A031DD42DD52D232E5D08860087018B
:103BB0000130810741310318810A5E0886008701C0
:103BC00001088400850102308107003FDF00013FCA
:103BD000E0005F082100A000200060082100A10093
:103BE000890D893B8909A200A300A400A500A600B5
:103BF000A70020082000BF00210021082000C000ED
:103C0000210022082000C100210023082000C2005A
:103C1000210024082000C300210025082000C40042
:103C2000210026082000C500210027082000C6002A
:103C3000210029089031DA209D3120004008DE0063
:103C40003F08DD00AD2E5D0886008701403FDF00A4
:103C5000413FE0005F0884006008850012006E3A72
:103C6000031D332E342E532E5D088600870101304C
:103C7000810741310318810A5E0886008701403FB1
:103C800084008501810A0008DF005F082100A80088
:103C90002808860087015F08C03F6008C13F2000F8
:103CA000DD01DE01AD2E5D0886008701403FDF00AB
:103CB000413FE0005F088400600885001200253A5B
:103CC000031D632E642E7F2E5D0886008701013060
:103CD000810741310318810A2530A6000030A70072
:103CE000210029082000DF005F08A800A631A426D3
:103CF0009D3101302000DD000030DE00AD2E5D087A
:103D0000860087010130810741310318810A4F2E57
:103D10005D0886008701403FDF00413FE0005F080B
:103D20008400600885000008E100E2016108A60047
:103D30006208A700210029082000E3006308A8000A
:103D4000A631A4269D3120005D0886008701013040
:103D5000810741310318810A792E0800203086003E
:103D6000023087002A3084000130850014302100A1
:103D7000DD0016001A00DD0BB92E48308600023037
:103D8000870020308400013085000A30DD001600F5
:103D90001A00DD0BC72E0130AE3160269E31013096
:103DA000AE316D269E310030AE3153269E3121005A
:103DB00058082000AF00210057082000AE006F30E7
:103DC000B000B230B1004B30B200B230B300F630C8
:103DD000B400B030B500A63153269E312A30200001
:103DE000B3000130B400210058082000B6002100C3
:103DF00057082000B500AF3188279E3120003408D5
:103E00002200BF00200033082200BE003F0820002F
:103E1000B40022003E082000B3002030B50001307D
:103E2000B600AF3188279E31200034082100AE0053
:103E3000200033082100AD00AF3172279E31A6313A
:103E40000B269E3121005B088600023087000108A6
:103E5000903145209E312100DD005D082200C00028
:103E60000B302100DE002630DD005D30890B362F5F
:103E7000DD0B362FDE0B362F0032220040080319EF
:103E8000422F432F772F21005908860002308700E8
:103E900081015A088600023087008101EA30200043
:103EA000AE00B530AF007430B000B230B1005D305C
:103EB000B200B230B3000B30B400B130B500A6315F
:103EC00053269E31DB302100B8000030B900D930D4
:103ED000BA000030BB00DA30BC000030BD00DC307E
:103EE000BE000030BF00A7314D279E31FF2FEA30C2
:103EF0002000AE00B530AF000D30B000B630B100DC
:103F00006E30B200A830B3006E30B400A830B500F7
:103F1000A63153269E310030AE3160269E310130ED
:103F2000AE316D269E310030AE3153269E310130C8
:103F3000AE3194269E3119302100DE005A30DD006A
:103F4000B130890BA12FDD0BA12FDE0BA12F003289
:103F50000030AE3194269E3115302100DE004B300A
:103F6000DD00BE30890BB22FDD0BB22FDE0BB22F7E
:103F700000000130A1318B219E31003A0319C12F7D
:103F8000C22FE92F0130A131AE219E31003A031931
:103F9000CA2FCB2FE92F0130A131D1219E31003A18
:103FA0000319D32FD42FE92FEA302000AE00B5300B
:103FB000AF000D30B000B630B100E730B200B33022
:103FC000B3006A30B400B330B500A63153269E3139
:103FD000FF2F210059088600023087008101EA3056
:103FE000B000B530B100D930B2000030B300DA30E3
:103FF000B4000030B50098316B209E31622F08006C
:104000000130F0000030F1007908AE31E726A03130
:104010000030F500F600F701AE313926A03104304A
:10402000080046309831F420A03120003908AF0054
:104030003808AE003B08B1003A08B0003D08B300B4
:104040003C08B2003F08B5003E08B400A631532634
:10405000A03108004E309831F420A03120003908FA
:10406000AF003808AE003B08B1003A08B0003D0888
:10407000B3003C08B2003F08B5003E08B400A631CA
:104080005326A031080020002408A6002308A5001C
:104090004D280130A3070030A43D230886002408E2
:1040A00087000108031D55285628492825082302A2
:1040B000A3002608243BA400080023001908F000F0
:1040C00020006C08C53E8600013087007008810022
:1040D0000130F0007008EC0708306C02031C7128F6
:1040E00072287328EC010130F0007008EA0708001C
:1040F0002000A400A301240803197F288028862813
:104100008F1B832884288628A301A30A2408031D63
:104110008A288B2891288F1F8E288F289128A30109
:10412000A30A230808002000A400A30124080319FF
:104130009A289B28A1280F199E289F28A128A3010F
:10414000A30A2408031DA528A628AC280F1DA9280A
:10415000AA28AC28A301A30A2308080020003708D6
:10416000803AB80080303802031DB828013036028A
:104170000318BB28BC28C92820003609B800370915
:10418000B900B80A0319B90A3808B6003908B700E7
:10419000C9280800220090018F018C018D018E0139
:1041A0000830210090008C01CF308D00BF308E0090
:1041B000FF308F0023008F0137308D0090013C309D
:1041C0008C00240090018D012100951722009D0193
:1041D000080022000C1706302000A4001330A300B2
:1041E000AD30890BF128A30BF128A40BF128003284
:1041F00022000C1306302000A4001330A300AD30C1
:10420000890B0029A30B0029A40B00290032080008
:104210002000AC01AD011B2929082C0784002A08C5
:104220002D3D85000008AF31E727A1310130200086
:10423000AC070030AD3D29082C0784002A082D3D2D
:1042400085001200031D252926290C2908002000BD
:10425000A6002608A500A50DA50D21001D0820001B
:1042600025068339250621009D001D140D30890B7C
:104270003729000021009D149D183F2940293C2921
:104280001C082000A40021001B082000A300080037
:1042900020302100AD00A830AE00AF317227A1312F
:1042A0002100B101B201A2311922A1310130210056
:1042B000B1070030B23D3208803AB00080303002A1
:1042C000031D642902303102031C67296829532920
:1042D0000800083021006C0203186F297029892911
:1042E0006D08CD3E860001308700010823009A004A
:1042F0000130F00070082100ED0708306D02031C4A
:10430000822983298429ED010130F0007008EC072F
:104310008A29111208002000A400A301240803190F
:10432000922993299D290F1C962997299D298F1839
:104330009A299B299D29A301A30A2408031DA129C9
:10434000A229AC290F18A529A629AC298F1CA929B7
:10435000AA29AC29A301A30A230808002000A4006D
:10436000A30124080319B529B629C0298F1DB9292D
:10437000BA29C0290F1ABD29BE29C029A301A30A41
:104380002408031DC429C529CF298F19C829C92983
:10439000CF290F1ECC29CD29CF29A301A30A230899
:1043A00008002000A400A30124080319D829D92952
:1043B000E3298F1EDC29DD29E3290F1BE029E129F0
:1043C000E329A301A30A2408031DE729E829F22908
:1043D0008F1AEB29EC29F2290F1FEF29F029F22976
:1043E000A301A30A230808002000A8002303240433
:1043F000031DFB29FC29072A0130A700250A012AF1
:10440000A735890B002A27082804A800182A2308A2
:104410002404031D0C2A0D2A182A0130A700250A9E
:10442000122AA735890B112A2708FF3A2805A80068
:1044300008002000A801A901A231B922A2310B3045
:104440002000A7002630A6005D30890B252AA60B88
:10445000252AA70B252A003201302000A8070030AA
:10446000A93D2908803AA60080302602031D3A2A79
:1044700002302802031C3D2A3E2A1C2A0800200084
:104480002A08B0002908AF002808B2002708B100A8
:104490003208AC003108AB00B10A0319B20A2B088C
:1044A00086002C0887003008AE002F08AD00AF0A48
:1044B0000319B00A2D0884002E0885000008C03FAB
:1044C0008908031D642A652A482A08002000B500CF
:1044D000B301B4017E2A3208AF00B0012F08A60054
:1044E0003008A7002E08B1003108A800A631A42684
:1044F000A23101302000B3070030B43D3308350746
:10450000AF002F088600023087000108B000300895
:10451000B2003208031D8D2A8E2A6B2A0800F4008F
:10452000700871040319952A962AA92A7435A03EA9
:104530008600013087007008C03F7108C13F7208D3
:10454000F3007408AC3E86000130870073088100D8
:10455000B82A7435A03E8600013087001530C03F70
:104560002D30C13F7408AC3E8600013087008101C8
:1045700008002000A401A50122000D16063020002D
:10458000A3003030890BC22AA30BC22A00002200EC
:104590000D1206302000A3003030890BCD2AA30B6A
:1045A000CD2A000001302000A4070030A53D2508D9
:1045B000803AA30080302302031DE02A3230240217
:1045C000031CE32AE42ABC2A080023003C10023022
:1045D000FA007A08BB00F42AAD314E25A231112B26
:1045E000AD315325A231112B2E08FA007A08F900BB
:1045F0000430A03E860001308700413F8A00403FE2
:104600000A00A331FB00FC017C08003A0319092BC6
:10461000F02A7B08023A0319EC2A013A0319EC2A22
:10462000F02A08002000A40021006C080319192BAF
:104630001A2B142B111A1D2B1E2B232B20002408A0
:1046400023009A003C2B111220002408A3007D08AF
:10465000CD3E860001308700230881000130A30091
:104660002308FD0708307D02031C372B382B392B1C
:10467000FD0101302100EC022100111608009031EB
:104680000020A33123003C1C462B472B552BAD317A
:104690008525A331003A03194E2B4F2B552B0F3094
:1046A0002000A00020082300BA0023003A082000C0
:1046B000A000A101A035A10D003020078400A83082
:1046C000213D8500013F8A00003F0A00A331200000
:1046D000A20022082300BA0008002000B300B401A1
:1046E000B50190310320A3312000B1003408330715
:1046F000B2003208860002308700310881000130A4
:10470000B4070030B53D3508803AB1008030310241
:10471000031D8C2B14303402031C8F2B902B712B18
:1047200020003308133E8600023087008101AE313D
:104730002D26A33108002300BC15AB2BAD314E252F
:10474000A331C92BAD312325A3310330C92BAD31A2
:104750005325A331C92B2C08FA007A08F900210847
:104760008A0020080A00A331FB00FC017C08003A03
:104770000319BB2BA72B7B08013A0319A72B033A7C
:1047800003199E2B013A03199E2B073A0319A22BFA
:10479000A72B08002000AC00E52B2908BF3EAF3155
:1047A000CF27A331F82B2908933EAF31CF27A33170
:1047B000F82B2908D33EAF31CF27A331F82B290896
:1047C0007F3EAF31CF27A331F82B2C08AA00AB01D5
:1047D0002B08003A0319ED2BDF2B2A08023A0319A4
:1047E000CD2B013A0319D32B073A0319D92BDF2B11
:1047F000080020006A080319FE2BFF2BF92B6B0819
:10480000BD3E8600013087000108A3002308210077
:10481000EB0020006B08C53E8600013087000108D0
:10482000A3002308A4000130A3002308EB070830ED
:104830006B02031C1C2C1D2C1E2CEB012100911261
:1048400001302000EA02210091162000240808000F
:104850002000A601A701472C22008D1668302000F9
:10486000A500E430890B322CA50B322C000022006D
:104870008D1268302000A500E430890B3D2CA50B7B
:104880003D2C000001302000A6070030A73D27087E
:10489000803AA5002408803A2502031D512C2308E4
:1048A0002602031C542C552C2C2C22008D1208009F
:1048B0002D343E342034453452345234453455344A
:1048C00052343A342034003400340034003400349C
:1048D00000340034003400342D343E342034453468
:1048E000523452344534553452343A34203400343E
:1048F0000034003400340034003400340034003418
:104900000D340A34003400340034003400340034F0
:10491000003400342100AA00200065082100AC000A
:10492000200064082100AB00DF01E001AD2CAB30BA
:104930002000E7006708DD006608E8006808DE0080
:1049400021002A089D318C25A43120005D0821001A
:10495000DF0720005E082100E03D2B0884002C08C2
:1049600085001200031DB52CB62C972C6008200082
:10497000E50021005F082000E40008002100B400E9
:10498000AF302000E90069082100B300340820009E
:10499000E90069082100B500B601B701B801B90105
:1049A0002E082000E50021002D082000E400B3308F
:1049B000E9006908E600B530A4318A24A43120005A
:1049C00065082100B200200064082100B10036080B
:1049D00034072000E9006908860002308700810161
:1049E00021003208AE003108AD00080020006C083C
:1049F000BD3E860001308700810123001D1D012D71
:104A0000022D0F2D20006C08BD3E8600013087006E
:104A10008114220046088A0045080A00A5312300B7
:104A20009D1C132D142D212D20006C08BD3E8600E9
:104A300001308700011523005A088A0059080A002E
:104A4000A53120006C08BD3E8600013087000108BA
:104A500003192B2D2C2D332D230058088A005708BD
:104A60000A00A531362DA0315D20A4310800AD31FA
:104A70002025A531FA0023003708860087017A082F
:104A800081000130FA007A08B7070130B80200301F
:104A9000B93B3808390403194E2D4F2D542DAD3133
:104AA0003225A53105307C2DBC155E2DAD3162253A
:104AB000A5317C2DAD315D25A5317C2D2C08FA006A
:104AC0007A08F90021088A0020080A00A531FB00B5
:104AD000FC017C08003A03196E2D5A2D7B08013A1F
:104AE00003195A2D033A0319562D013A0319562D6D
:104AF000073A03195A2D5A2D08002000A40024005B
:104B000016141618842D852D812D3230910014181D
:104B10008A2D8B2D872D14198E2D8F2D8B2D2000F6
:104B20002408240091001418962D972D932D141904
:104B30009A2D9B2D972D961496189F2DA02D9C2D68
:104B4000333091001418A52DA62DA22D1419A92DCE
:104B5000AA2DA62D9615141CAE2DAF2DAB2D110828
:104B60002000A3002308A500240096161616161A86
:104B7000BA2DBB2DB72D16151619BF2DC02DBC2D66
:104B800020002508080021009112F6302000A30023
:104B90002430A400AD31E525A53121001112693082
:104BA0002000A3002130A400AD31EE25A53108304E
:104BB00023009F0090309D0024309E0040309B00D9
:104BC00003309C0013302000A3002D30A400AD3131
:104BD000D325A5312A302000A3002D30A400AD310B
:104BE000DC25A53126302000A3002D30A400AD31F6
:104BF000CA25A5312100EB01FD01ED01083020009F
:104C0000A50025082100EC002000EC01EB01EA01E1
:104C10002100911608002000A801A9012000AA0186
:104C2000AB01A231B922A6310B302000A7002630FB
:104C3000A6005D30890B1A2EA60B1A2EA70B1A2E72
:104C4000003201302000AA070030AB3D2B08803A2B
:104C5000A60080302602031D2F2E04302A02031CDA
:104C6000322E332E112E0B302000A7002630A60046
:104C70005D30890B392EA60B392EA70B392E003249
:104C800001302000A8070030A93D2908803AA6007D
:104C900080302602031D4E2E04302802031C512EA4
:104CA000522E0E2E0800AD31F725A6310630AF3159
:104CB000CF27A63102302000B7000430B600BA304A
:104CC000890B602EB60B602EB70B602E0000200003
:104CD000A901A90A0130A331CA23A63120002F0857
:104CE000AA002E08A900A1310821A6312000A9019F
:104CF000A90A0230A331CA23A63120003108AA0034
:104D00003008A900A1310821A6312000A901A90A73
:104D10000330A331CA23A63120003308AA00320889
:104D2000A900A1310821A6312000A901A90A043057
:104D3000A331CA23A63120003508AA003408A900EF
:104D4000A1310821A6310800200028080319A92E46
:104D5000AA2EAF2E2808031DAE2EAF2EB42E260885
:104D6000AD31AA25A631F52E2808033E860087011D
:104D7000160001040319BD2EBE2EDB2E2808033EAB
:104D800086008701403FA900413FAA00280A86000B
:104D90008701403FAB00413FAC002C08803AAD009A
:104DA0002A08803A2D02031DD72E29082B0203184A
:104DB000DA2EDB2EF52E20002608A9002808860012
:104DC0008701280A8400850100080107AA002A0833
:104DD00086000230870029088100280A86008701A2
:104DE0000130810741310318810A0800AD31852562
:104DF000A631003A0319FD2EFE2E2F2F0B2FAD31B9
:104E00004425A6314C2FAD314925A6314C2FAD316B
:104E10005325A6314C2F23002F08FA007A08F900F9
:104E20000630A03E860001308700413F8A00403FA7
:104E30000A00A731FB00FC017C08003A0319212F6E
:104E4000072F7B08013A0319072F033A0319FF2E96
:104E5000013A0319032F073A0319072F072F2300DD
:104E60003C101730A03E860001308700403F840090
:104E70008501810A0008AD313A25A63101302300B1
:104E8000B8020030B93B38083904031D482F492FB8
:104E90004B2F06304C2F03300800210038088600C5
:104EA000390887000108C000C1014008B00041086E
:104EB000B1003A0886003B0887000108C200C30120
:104EC0004208B2004308B30098310420A731210002
:104ED0003A0886003B0887000108C000C10140086D
:104EE000B0004108B1003C0886003D088700010879
:104EF000C200C3014208B2004308B300380886006C
:104F0000390887000108C400C5014408B4004508F9
:104F1000B5003E0886003F0887000108C600C701AB
:104F20004608B6004708B7008731B027A7312930B7
:104F30002100C1009630C0007F30890B9D2FC00B2F
:104F40009D2FC10B9D2F08002000BE002100631C77
:104F5000AA2FAB2FB42F20003E08B9003908AE00AD
:104F60003608A2316622A7312000B81BB82FB92F0E
:104F7000BE2F3808BD003708BC00C02FBC01BD01E2
:104F8000BA01BB01D42F20302000A6000030A700BA
:104F90003E08B9003908A800A631A426A73101307F
:104FA0002000BA070030BB3D3B08803AB9003D08FD
:104FB000803A3902031DDE2F3C083A02031CE12F20
:104FC000E22FC32F21006318E62FE72FF02F2000D8
:104FD0003E08B9003908AE003608A2316622A73172
:104FE00020003608A3000230A400A0314320A731DE
:104FF00020003C082307B6003D08243DB700080008
:105000003F342D34C1342D34B1342D34F6342634AC
:1050100037342534A3342D349B34233444342D3495
:1050200049342D344E342D3453342D3458342D34EA
:105030005D342D3462342D3467342D34E53422341C
:105040002D343E34203454344534533454342034D5
:1050500043344F344E3446344F3452344D34453457
:1050600020342D34203441345434543445344E34B7
:105070005434453420344134433451345534493464
:105080005434543445344D3445344E3454340D3452
:105090000A3400342D343E342034503452344F34EA
:1050A0004734523441344D344D344134543449340E
:1050B0004F344E3420344D344F34443455344C3412
:1050C00045342034313420345434453452344D3452
:1050D00049344E34453445340D340A3400342D34CB
:1050E0003E342034503452344F34473452344134F7
:1050F0004D344D344134543449344F344E342034DB
:105100004D344F34443455344C34453420343234E7
:1051100020345434453452344D3449344E344534BB
:1051200045340D340A3400344134743474346534F5
:105130006E34743465342034763461346C346934BC
:1051400064346134743469346F346E3420346C34B4
:1051500065346434203472346F34753467346534A4
:105160000D340A3400342D343E342034503452345B
:105170004F344734523441344D344D344134543437
:1051800049344F344E34203445344E342034433483
:105190004F345534523453340D340A3400342D34E2
:1051A0003E3420344534523452344534553452342C
:1051B0002034503452344F344734523441344D3417
:1051C0004D344134543449344F344E340D340A3460
:1051D00000342D343E342034543445345334543464
:1051E00020344D3441344E34553445344C3420341D
:1051F00045344E34203443344F34553452345334D0
:105200000D340A34003441345434543445344E346B
:10521000543445342034563441344C3449344434C5
:105220004134543449344F344E3420344C344534B2
:10523000443453340D340A3400342D343E34203495
:1052400053344C344134563445342034523445348C
:10525000533450344F344E345334453420344E3468
:1052600055344C344C340D340A3400342D343E342F
:1052700020344534463446344134433445344D3487
:1052800045344E345434203445344E342034433481
:105290004F345534523453340D340A3400342D34E1
:1052A0003E34203453344C34413456344534203465
:1052B00045344E3444342034503452344F3447341F
:1052C00020344B34383420344F34463446340034A0
:105A260008000834013008002400961408002400F9
:105A36001615080024009615080024001108080011
:105A4600200091150800A0315D20AD31080023002B
:105A56001D121D16080024009616161608002400AE
:105A6600961216160800A3313F23AD310800F00048
:105A760070082400910008002300BC10BB010E3002
:105A86000800AD311725AD3101300800AD311725BD
:105A9600AD3102300800AD311725AD3101300800B7
:105AA600AD311A25AD3100300800AD313225AD31AA
:105AB60005300800AD312E25AD310A300800AD3174
:105AC6002E25AD31093008002300BC10BB010E3075
:105AD60008002A30A5317D25AD3108007730A53183
:105AE6007D25AD3108007630A5317D25AD31080024
:105AF6007530A5317D25AD3108003D30A5317D25B8
:105B0600AD3108002400160E890C890C01390800F5
:105B1600AE312126AD31240016140800AE312126FF
:105B2600AD31240016150800640080010131890B8F
:105B3600982D0034FE0012001E00FE0B9E2D003430
:105B460023003C10AD311D25AD3104300800200086
:105B5600A5002508A3311223AD31080023003C140B
:105B66003635AD313A25AD3103300800F03021002D
:105B76009E009B019C0101309D00080023003C14FF
:105B86000314360DAD313A25AD310530080020003D
:105B960024082300D800200023082300D70008008B
:105BA600200024082200C600200023082200C50089
:105BB6000800200024082300DA0020002308230020
:105BC600D9000800200024082200C800200023086D
:105BD6002200C7000800200024082100E60020005B
:105BE60023082100E50008000130AF31CF27AD3191
:105BF6003530890BFC2D000008000D340A340034C2
:105C060000340034003400340034003400342830CA
:105C160024009500960194012730920021008E15EC
:105C26000E16080070302100990098012200960196
:105C360021001A1F1F2E202E1B2E080024001419C7
:105C4600252E262E212E16081F39031D2B2E2C2E0F
:105C5600212E080022008D1268302000A300E430B7
:105C6600890B332EA30B332E000008007608F100B3
:105C76007508F0007708F8007808F2000030A231C5
:105C86008F22AE3108002000A300230803194C2EF2
:105C96004D2E502E22000C14522E22000C100800FD
:105CA6002000A30023080319592E5A2E5D2E220028
:105CB60010145F2E2200101008002000A3002308F5
:105CC6000319662E672E6A2E220090146C2E22006F
:105CD600901008002000A30023080319732E742EC9
:105CE600772E22001015792E2200101108002000B0
:105CF600A30023080319802E812E842E22008C14E3
:105D0600862E22008C1008002000A3002308031909
:105D16008D2E8E2E912E22000C15932E22000C1104
:105D260008002000A300230803199A2E9B2E9E2EFE
:105D360022000C16A02E22000C1208002000A30040
:105D460023080319A72EA82EAB2E22008C16AD2EE3
:105D560022008C1208002000A30023080319B42E89
:105D6600B52EB82E22008C15BA2E22008C110800F2
:105D760022008D1268302000A300E430890BC12E6A
:105D8600A30BC12E000022008D160800323024001D
:105D960092003630950096018030940021008E15D1
:105DA6000E168B170B179115080020006A080319A9
:105DB600DD2EDE2EE52EA331F923AE312000A5001F
:105DC6002508A60026080800F3002300BC1DEC2EBB
:105DD600ED2EF62E7308F2007208B7007108B900AE
:105DE6007008B800BC110800A031CA20AE31AE312F
:105DF6001526AE3198310020AE31AD31B925AE3120
:105E0600A531C325AE3108002000A300AE312126FE
:105E1600AF3120002308240091002000911D142F8B
:105E2600152F102F911108000230F0000030F100FC
:105E36007908AE31E726AF310030F500F600F701FC
:105E4600AE313926AF31043008000130F0000030A1
:105E5600F1007908AE31E726AF310030F500F600E3
:105E6600F701AE313926AF31023008000230F000BA
:105E76000030F1007908AE31E726AF310030F50089
:105E8600F600F701AE313926AF31023008002000A6
:105E96008D194E2F4F2F4A2F8D1D522F532F4F2FB7
:105EA600D0302000A300C930890B572FA30B572FE2
:105EB600003208002000A400AD318B25AF3121004F
:105EC6006908AF310727AF312000240821006E048E
:105ED600AF310727AF31AD319125AF310800AF3073
:105EE6002000E90069082100AF002E082000E50027
:105EF60021002D082000E400AF30E9006908E60023
:105F06000030A4318A24AF31080020003408A400F0
:105F16003308A300A0314320AF3120002308330704
:105F2600A7002408343DA8003608AA003508A900B1
:105F3600A2313F22AF310800790886008701403F31
:105F4600F000413FF1007908023E86008701010812
:105F5600AE31E726AF310030F500F600F701AE317D
:105F66003926AF31023008002000A60021006A0859
:105F76002000A5002508A60426080438AF315D27B1
:105F8600AF3120002608FB39AF315D27AF314230F3
:105F9600890BCB2F003208002000A8002100EA015F
:105FA60020002808F039AF31B727AF312000280884
:105FB600A7000330A735FF3E031DDD2F2735F03937
:105FC600AF31B727AF3108002000A8002100EA0151
:105FD600EA0A20002808F039AF31B727AF31200090
:105FE6002808A7000330A735FF3E031DF62F2735E7
:105FF600F039AF31B727AF3108002D343E342034A5
:106006004534463446344134433445344D344534BE
:106016004E34543420345434453452344D34493497
:106026004E3445340D340A3400342D343E34203495
:1060360053344C344134563445345F345434453447
:1060460053345434203447344534543420344134A2
:10605600433451340D340A3400342D343E34203464
:1060660053344C344134563445345F345434453417
:1060760053345434203447344534543420344F3464
:106086004B340D340A3400342D343E34203453342A
:106096004C344134563445345F34543445345334E7
:1060A6005434203447344534543420344B344F343C
:1060B6000D340A3400342D343E34203453344C34F9
:1060C60041345634453420345434453453345434EE
:1060D600203443344F344E3446344F3452344D34E6
:1060E600453400342D343E34203453344C3441345A
:1060F60056344534203454344534533454342034DF
:106106004134433451345534493454345434453489
:1061160000342D343E34203453344C344134563418
:1061260045345F34503452344F344734203453347A
:1061360054344134523454340D340A3400342D343A
:106146003E342034463449344E34203454344534B5
:106156005334543420344D3441344E34553445345C
:106166004C340D340A3400342D343E342034533448
:106176004C34413456344534203445344E3420347E
:1061860041345434543445344E34543445343A341A
:1061960000342D343E34203453344C344134563498
:1061A60045345F34543445345334543420344734FE
:1061B6004534543420344F344B340034453452344F
:1061C60052344534553452342034503452344F34DA
:1061D6004734523441344D344D34413454344934C7
:1061E6004F344E34003450345234453453345334DF
:1061F6004534523420344F344B3420344F345534E4
:1062060020344534523452344534553452340034F3
:1062160041345434543445344E34543445342034A3
:106226004134433451345534493454345434453468
