:1000000080314A28053008007E1480310B1F0928F2
:100010000A2848282100111E0E280F281B2820001E
:10002000111E132814281B28210066088A00650861
:100030000A00803148282100911E1F2820282C28E2
:100040002000911E242825282C2822004A088A00F6
:1000500049080A00803148282100921D30283128A3
:100060003D282000921D352836283D2821006808AB
:100070008A0067080A00803148282100911D412824
:10008000422848282000911D46284728482836281D
:100090007E10090080314C282100AD3117258031B8
:1000A000EE0061308400AF308500DB308600013027
:1000B00087001430AD31A32580316D308400A2302B
:1000C000850020308600023087002830AD31A3251E
:1000D0008031FD012000EA01EB01EC01DF308400FA
:1000E000003085000F30AD319D2580312200C501E3
:1000F000C601C701C801C901CA01A030840001308E
:1001000085003B30AD319D25803148308400023080
:1001100085002030AD319D2580317E102000923148
:100120004A2A2100B400B72BB730AD00B030AE0082
:10013000AF318A278031422CB730AD00B230AE00EB
:10014000AF318A27803115302000B800B630B900B1
:10015000A530BA00B230BB006130BC00B630BD0083
:100160006130BE00B630BF00A03118208031422C73
:100170005030AD00B330AE00AF318A278031422C11
:10018000C830AD00B230AE00AF318A2780312530A3
:100190002000B800B630B9000530BA00B430BB005A
:1001A0006130BC00B630BD006130BE00B630BF006B
:1001B000A03118208031422C5030AD00B330AE0059
:1001C000AF318A278031422CD930AD00B230AE0039
:1001D000AF318A2780312D302000B800B630B90009
:1001E0002330BA00B430BB006130BC00B630BD0073
:1001F0006130BE00B630BF00A03118208031422CE3
:100200005030AD00B330AE00AF318A278031422C80
:10021000EA30AD00B230AE00AF318A2780313530E0
:100220002000B800B630B9001430BA00B430BB00BA
:100230006130BC00B630BD006130BE00B630BF00DA
:10024000A03118208031422C5030AD00B330AE00C8
:10025000AF318A278031422CFB30AD00B230AE0086
:10026000AF318A2780313D302000B800B630B90068
:10027000A930BA00B530BB006130BC00B630BD005B
:100280006130BE00B630BF00A03118208031422C52
:100290005030AD00B330AE00AF318A278031422CF0
:1002A0000C30AD00B330AE00AF318A27803145301D
:1002B0002000B800B630B9004830BA00B130BB00F9
:1002C0006130BC00B630BD006130BE00B630BF004A
:1002D000A03118208031422C5030AD00B330AE0038
:1002E000AF318A278031422C1D30AD00B330AE00D3
:1002F000AF318A2780314D302000B800B630B900C8
:100300005C30BA00B130BB006130BC00B630BD001B
:100310006130BE00B630BF00A03118208031422CC1
:100320005030AD00B330AE00AF318A278031422C5F
:100330002E30AD00B330AE00AF318A27803155305A
:100340002000B800B630B900B630BA00B330BB00F8
:100350008330BC00B330BD006130BE00B630BF009A
:10036000A03118208031422C5030AD00B330AE00A7
:10037000AF318A278031422C3F30AD00B330AE0020
:10038000AF318A278031B4302000B800B530B900D1
:10039000B630BA00B330BB00C730BC00B330BD00CC
:1003A0006130BE00B630BF00A03118208031422C31
:1003B0005030AD00B330AE00AF318A278031422CCF
:1003C000A930AD00B130AE00AF318A278031BD30E9
:1003D0002000B800B530B9008630BA00B530BB0097
:1003E0006130BC00B630BD006130BE00B630BF0029
:1003F000A03118208031422C5030AD00B330AE0017
:10040000AF318A278031422CBB30AD00B130AE0015
:10041000AF318A278031BD302000B800B530B90037
:100420006130BA00B630BB006130BC00B630BD00F0
:100430006130BE00B630BF00A03118208031422CA0
:100440005030AD00B330AE00AF318A278031422C3E
:10045000CD30AD00B130AE00AF318A278031CF3022
:100460002000B800B530B900D730BA00B330BB00B7
:100470008A30BC00B430BD009430BE00B330BF0041
:10048000A031182080312100300886003108870013
:1004900001308100422C5030AD00B330AE00AF319E
:1004A0008A278031422CDF30AD00B130AE00AF3151
:1004B0008A278031210030088600310887008101B9
:1004C000D8302000B800B530B900C630BA00B53019
:1004D000BB006130BC00B630BD006130BE00B6303C
:1004E000BF00A03118208031422C5030AD00B33015
:1004F000AE00AF318A278031422CF130AD00B130EF
:10050000AE00AF318A278031E1302000B800B5302D
:10051000B9000D30BA00B530BB006130BC00B63058
:10052000BD006130BE00B630BF00A0311820803160
:10053000422C5030AD00B330AE00AF318A2780314D
:10054000422C0330AD00B230AE00AF318A2780318B
:10055000EA302000B800B530B9000D30BA00B6302E
:10056000BB006130BC00B630BD006130BE00B630AB
:10057000BF00A03118208031422C5030AD00B33084
:10058000AE00AF318A278031422C1530AD00B23039
:10059000AE00AF318A278031F3302000B800B5308B
:1005A000B9001D30BA00B630BB006130BC00B630B7
:1005B000BD006130BE00B630BF00A03118208031D0
:1005C000422C5030AD00B330AE00AF318A278031BD
:1005D000422C2730AD00B230AE00AF318A278031D7
:1005E000FC302000B800B530B9004130BA00B4305A
:1005F000BB009E30BC00B530BD009430BE00B330AF
:10060000BF00A03118208031432A5030AD00B330F4
:10061000AE00AF318A278031422C3930AD00B23084
:10062000AE00AF318A2780312100300886003108C2
:100630008700810192302000B800B530B9007830D1
:10064000BA00B230BB007C30BC00B430BD000B300F
:10065000BE00B130BF00A03118208031422C503094
:10066000AD00B330AE00AF318A278031422C5E300E
:10067000AD00B030AE00AF318A2780319630200017
:10068000B800B130B9003230BA00B430BB0093309A
:10069000BC00B230BD005030BE00B430BF00A0314D
:1006A00018208031422C6130AD00B330AE00AF3144
:1006B0008A278031422C7230AD00B330AE00AF31AA
:1006C0008A278031422C7530AD00B030AE00AF319A
:1006D0008A27803196302000B800B130B90032301E
:1006E000BA00B430BB009330BC00B230BD00503013
:1006F000BE00B430BF00A03118208031422C34300D
:10070000AD00B130AE00AF318A2780319630200085
:10071000B800B130B9003230BA00B430BB00853017
:10072000BC00B230BD005030BE00B430BF00A031BC
:1007300018208031422C4F30AD00A930AE00AF31CF
:100740008A27803196302000B800B130B9003230AD
:10075000BA00B430BB008130BC00B230BD005030B4
:10076000BE00B430BF00A03118208031422C3408C4
:10077000B200B3013308003A0319BF2B422C3208F0
:100780002A3A03199B2B173A03197F2B7C3A03193A
:100790009C28033A0319C028013A0319E428073AB0
:1007A00003190829013A03192C29033A031950297E
:1007B000013A031974290F3A03199829013A0319C8
:1007C000BC29033A0319E029013A0319042A073A1C
:1007D0000319282A013A0319532A033A03197D2AD7
:1007E000013A0319A12A1F3A0319C52A013A03192C
:1007F000E92A033A03190D2B013A0319372B323A30
:100800000319B828033A0319DC28013A031900290F
:10081000073A03192429013A03194829033A03190D
:100820006C29013A031990290F3A0319B429013AA6
:100830000319D829033A0319FC29013A0319202A7C
:10084000073A03194B2A013A0319752A033A031987
:10085000992A013A0319BD2A1F3A0319E12A013ADC
:100860000319052B033A03192F2B073A0319532BAE
:10087000033A03195B2B013A0319632B0D3A031951
:100880009428422C08002100C400C301AB2F200093
:100890000F194B2C4C2C672CE9302100AD00A830EF
:1008A000AE00AF318A2784312100C301C30A440856
:1008B00086000230870081013608860002308700FA
:1008C000810135088600023087008101810A2000FD
:1008D0006A0803196C2C6D2C852FA331FA238431FF
:1008E0002100B9003908BB00542F010098302100C5
:1008F000AD00B430AE00AF318A2784312100440806
:100900008600023087008101810A350886000230A6
:1009100087008101810A3608860002308700810144
:1009200002302100BA000430B900BA30890B962C8D
:10093000B90B962CBA0B962C00002100C301C30AF8
:10094000852FCF30AD00A830AE00AF318A2784317B
:1009500096302000AE00B130AF006130B000B6304C
:10096000B100E130B200B030B3006130B400B63055
:10097000B500A63153268431210044088600023098
:1009800087008101810A02302100BA000430B900D9
:10099000BA30890BC92CB90BC92CBA0BC92C000071
:1009A0002100C301C30A3508860002308700810197
:1009B00022008C13852FB330AD00A830AE00AF31CC
:1009C0008A27843196302000AE00B130AF0061300C
:1009D000B000B630B1008530B200B230B300613043
:1009E000B400B630B500A631532684312100440846
:1009F0008600023087008101810A350886000230B6
:100A000087008101360886000230870081010230AC
:100A10002100BA000430B900BA30890B0D2DB90B92
:100A20000D2DBA0B0D2D00002100C301C30A2200B9
:100A30008C17852F4A30AD00A830AE00AF318A2721
:100A4000843196302000AE00B130AF006130B0008C
:100A5000B630B1008130B200B230B3006130B400C2
:100A6000B630B500A63153268431210044088600F3
:100A7000023087008101810A02302100BA0004306F
:100A8000B900BA30890B422DB90B422DBA0B422D59
:100A900000002100C301C30A350886000230870028
:100AA000810122008C13852F3630AD00A930AE00B5
:100AB000AF318A27843196302000AE00B130AF00CC
:100AC0006130B000B630B100FA30B200B330B300DC
:100AD0006130B400B630B500A63153268431210010
:100AE00044088600023087008101810A35088600AB
:100AF00002308700810136088600023087008101BC
:100B0000810A02302100BA000430B900BA30890BE2
:100B1000872DB90B872DBA0B872D00002100C3014B
:100B2000C30A22008C17852F0030AD00B030AE0014
:100B3000AF318A27843196302000AE00B130AF004B
:100B40006130B000B630B100F630B200B330B3005F
:100B50006130B400B630B500A6315326843121008F
:100B600044088600023087008101810A350886002A
:100B7000023087008101360886000230870081013B
:100B8000810A02302100BA000430B900BA30890B62
:100B9000C72DB90BC72DBA0BC72D00002100C3010B
:100BA000C30A22008C13852FAD31862584312100A4
:100BB000B9003908BC0061303C06031DE02DE12D71
:100BC000242E8330AD00B130AE00AF318A2784319E
:100BD000210044088600023087008101810A35081F
:100BE00086000230870081013708860002308700C6
:100BF0008101810A360886000230870081010230B7
:100C00002100BA000430B900BA30890B052EB90BA7
:100C1000052EBA0B052E00002100C301C30A0530C2
:100C20002000B800B630B900A530BA00B330BB0020
:100C30006130BC00B630BD006130BE00B630BF00D0
:100C4000A03118208431852F1D30AD00A930AE00B1
:100C5000AF318A2784319D2CAD317C258431210030
:100C6000B9003908BD0075303D06031D382E392EF8
:100C7000532E3030AD00B030AE00AF318A27843112
:100C8000210044088600023087008101810A35086E
:100C90008600023087008101370886000230870015
:100CA0008101810A8B2C1D30AD00A930AE00AF311F
:100CB0008A2784319D2CAD31772584312100B900FC
:100CC0003908BE0076303E06031D672E682E702E52
:100CD0004730AD00B030AE00AF318A278431402EAE
:100CE0001D30AD00A930AE00AF318A2784319D2C74
:100CF000AD31722584312100B9003908BF00773049
:100D00003F06031D842E852E9E2E1830AD00B03078
:100D1000AE00AF318A2784312100440886000230BA
:100D200087008101810A3508860002308700810131
:100D3000370886000230870081018B2C1D30AD0002
:100D4000A930AE00AF318A2784319D2CAD31812589
:100D500084312100B9003908C0003D304006031D30
:100D6000B22EB32EF52E8C30AD00B030AE00AF31C8
:100D70008A278431210044088600023087008101DF
:100D8000810A350886000230870081013708860015
:100D90000230870081013608860002308700810119
:100DA00002302100BA000430B900BA30890BD62EC7
:100DB000B90BD62EBA0BD62E00002100C301C30AF0
:100DC00096302000B800B130B9008530BA00B2309A
:100DD000BB006130BC00B630BD006130BE00B63033
:100DE000BF00A03118208431852F1D30AD00A930FF
:100DF000AE00AF318A2784319D2CAD316D25843111
:100E00002100B9003908C1002A304106031D092F0D
:100E10000A2F4C2F6F30AD00A830AE00AF318A27BB
:100E20008431210044088600023087008101810A54
:100E300035088600023087008101370886000230BD
:100E40008700810136088600023087008101023068
:100E50002100BA000430B900BA30890B2D2FB90B2C
:100E60002D2FBA0B2D2F00002100C301C30A96308D
:100E70002000B800B130B9008130BA00B230BB00F8
:100E80006130BC00B630BD006130BE00B630BF007E
:100E9000A03118208431852F1D30AD00A930AE005F
:100EA000AF318A2784319D2C3B08B900BA013A083A
:100EB000003A03195C2F852F39082A3A0319FD2EB1
:100EC0001A3A0319752C013A0319762C043A0319BE
:100ED000942D033A0319A12C013A0319DB2C0F3A84
:100EE0000319542D013A03191A2D043A0319A62E99
:100EF0005C3A0319D42D143A03192C2E033A031922
:100F00005B2E013A0319782E852F210037088600C1
:100F100002308700010803198E2F8F2FAB2F3F302F
:100F2000A5317D2584312100B9003908C200380877
:100F3000B0000230B1004208803191208431053088
:100F40002100BA000F30B900F130890BA52FB90B81
:100F5000A52FBA0BA52F210043080319B02FB12FDD
:100F6000472C080021003408860035088700010856
:100F7000031DBB2FBC2FC32FA230AD00B030AE007D
:100F8000AF318A2787312100300886003108870079
:100F90008101320886003308870081013408860009
:100FA0003508870081013608860037088700013040
:100FB00081000030AE31592687310030AE316626CF
:100FC00087310030AE31732687310030AE314C2688
:100FD00087310030AE31802687310030AE318D262A
:100FE00087310030AE319A2687310030AE31A726E6
:100FF000873122008C138D12080020009111080007
:101000003F30A5317D258831080055302000B800DB
:10101000B630B900B630BA00B330BB008330BC0084
:10102000B330BD006130BE00B630BF00A03131200A
:1010300088310130AE318026883106302200C2006E
:101040001330C100AD30890B2328C10B2328C20BFC
:10105000232800320030AE31802688310B30220048
:10106000C2002630C1005D30890B3428C10B342802
:10107000C20B342800320C30A1312E2188312000DF
:1010800024082500C100200023082500C0005D3091
:101090002100AD00B630AE00250041082100B000AF
:1010A000250040082100AF00B930A431BE248831AA
:1010B00021002E082500B50021002D082500B400D0
:1010C0004108803A2200C10083304102031D6B2891
:1010D00020302500400203186E286F287A2822004D
:1010E0008C177A302100AD00B530AE00AF318A27C1
:1010F0008831B42855302100B000B630B100C93075
:10110000B2000230B300C630B4000230B5009831EE
:101110006B20883155302000AE00B630AF00B630BD
:10112000B000B330B100B930B2000230B30061306A
:10113000B400B630B500A6315326883122008C1396
:10114000C8302100B8000230B900C930BA000230FE
:10115000BB00C630BC000230BD00C730BE0002304C
:10116000BF00A7314D27883129302200C2009630B8
:10117000C1007F30890BBA28C10BBA28C20BBA282C
:101180008831002088312200C10041082500C300B9
:1011900042082200C100C20141082100B000220023
:1011A00042082100B1002500430880319120883198
:1011B000AE31DE2688312200C10041082500C4007E
:1011C000C9302200C10041082100B000C730220010
:1011D000C20042082100B100C5302200C30043080C
:1011E0002100B200250044082200C4004408210068
:1011F000B300C8309A316D2288312500490803199F
:1012000002290329BE29B4302000B800B530B90046
:10121000B630BA00B330BB00C730BC00B330BD003D
:101220006130BE00B630BF00A031312088310130BE
:10123000AE318026883106302200C2001330C10052
:10124000AD30890B2129C10B2129C20B2129003284
:101250000030AE31802688310B302200C2002630AB
:10126000C1005D30890B3229C10B3229C20B3229F2
:1012700000320C30A1312E218831200024082500B5
:10128000C100200023082500C0005D302100AD0012
:10129000B630AE00250041082100B000250040080E
:1012A0002100AF00B930A431BE24883121002E08BE
:1012B0002500B70021002D082500B6004108803A1E
:1012C0002200C10082304102031D6929BC30250083
:1012D000400203186C296D29782922008C13A5304F
:1012E0002100AD00B430AE00AF318A278831B22979
:1012F000B4302100B000B530B100C930B2000230C6
:10130000B300C630B4000230B50098316B2088318C
:10131000B4302000B800B530B900B630BA00B330F0
:10132000BB00B930BC000230BD006130BE00B63039
:10133000BF00A0313120883122008C17C830210035
:10134000B8000230B900C930BA000230BB00C63064
:10135000BC000230BD00C730BE000230BF00A73164
:101360004D27883129302200C2009630C1007F30DD
:10137000890BB829C10BB829C20BB82988310020C4
:1013800088312200C10041082500C3004208220024
:10139000C100C20141082100B00022004208210022
:1013A000B10025004308803191208831AE31DE261E
:1013B00088312200C10041082500C400C930220044
:1013C000C10041082100B000C7302200C20042081D
:1013D0002100B100C5302200C30043082100B20043
:1013E000250044082200C40044082100B300C8308E
:1013F0009A316D228831250049080319002A012AF3
:10140000CD2ABD302000B800B530B9008630BA0012
:10141000B530BB006130BC00B630BD006130BE00ED
:10142000B630BF00A031312088310B302200C2001D
:101430002630C1005D30890B1B2AC10B1B2AC20B51
:101440001B2A00320130AE3180268831063022005E
:10145000C2001330C100AD30890B2C2AC10B2C2ADD
:10146000C20B2C2A00320030AE31802688313D304C
:101470002200C200E130C1003F30890B3D2AC10B80
:101480003D2AC20B3D2A00320130AE318026883120
:1014900006302200C2001330C100AD30890B4E2A45
:1014A000C10B4E2AC20B4E2A00320030AE318026CC
:1014B000883110302200C2003930C1000D30890B54
:1014C0005F2AC10B5F2AC20B5F2A00320130A131B3
:1014D00092218831003A03196E2A6F2A8A2A013034
:1014E000A131B5218831003A0319772A782A8A2A4E
:1014F0000030A131D8218831003A0319802A812A8D
:101500008A2AB2302100AD00B430AE00AF318A2754
:101510008831B82A2500C9010030AE3180268831D3
:101520000030AE318D268831BD302100B000B5309D
:10153000B100C930B2000230B300C630B40002308E
:10154000B50098316B208831C8302100B8000230D6
:10155000B900C930BA000230BB00C630BC0002304E
:10156000BD00C730BE000230BF00A7314D27883113
:1015700015302200C2004B30C100BE30890BBE2A9C
:10158000C10BBE2AC20BBE2A00000030AE3180263D
:1015900088310030AE318D26883188310020883185
:1015A0002200C10041082500C30042082200C100FA
:1015B000C20141082100B000220042082100B10010
:1015C00025004308803191208831AE31DE268831F4
:1015D0002200C10041082500C400C9302200C1001A
:1015E00041082100B000C7302200C200420821009B
:1015F000B100C5302200C30043082100B20025001D
:1016000044082200C40044082100B300C8309A31C5
:101610006D2288312500490803190F2B102B7E2BD2
:10162000CF302000B800B530B900D730BA00B330A1
:10163000BB008A30BC00B430BD009430BE00B33073
:10164000BF00A031312088310130AE318026883191
:1016500006302200C2001330C100AD30890B2E2BA2
:10166000C10B2E2BC20B2E2B00320030AE31802648
:10167000883103302100AD00A930AE00AF318A2798
:101680008831250048089031452088312200C1006A
:1016900041082500C6004608031D4F2B502B762B12
:1016A000C901CF302100B000B530B100C930B2005F
:1016B0000230B300C630B4000230B50098316B2060
:1016C0008831C8302100B8000230B900C930BA00F2
:1016D0000230BB00C630BC000230BD00C730BE00C7
:1016E0000230BF00A7314D2788317E2BBF3021004B
:1016F000AD00B430AE00AF318A2788318831002088
:1017000088312200C10041082500C30042082200A0
:10171000C100C20141082100B0002200420821009E
:10172000B10025004308803191208831AE31DE269A
:1017300088312200C10041082500C400C9302200C0
:10174000C10041082100B000C7302200C200420899
:101750002100B100C5302200C30043082100B200BF
:10176000250044082200C40044082100B300C8300A
:101770009A316D228831250049080319C02BC12BED
:10178000412CD8302000B800B530B900C630BA00BE
:10179000B530BB006130BC00B630BD006130BE006A
:1017A000B630BF00A031312088310130AE318D26F6
:1017B000883106302200C2001330C100AD30890BE1
:1017C000DF2BC10BDF2BC20BDF2B00320030AE3121
:1017D0008D2688310B302200C2002630C1005D30DA
:1017E000890BF02BC10BF02BC20BF02B0032013018
:1017F000A13192218831003A0319FF2B002C1B2CB8
:101800000130A131B5218831003A0319082C092C87
:101810001B2C0130A131D8218831003A0319112C39
:10182000122C1B2CCC302100AD00B430AE00AF31F7
:101830008A278831412C2500C901D8302100B00009
:10184000B530B100C930B2000230B300C630B400C8
:101850000230B50098316B208831C8302100B800C3
:101860000230B900C930BA000230BB00C630BC003B
:101870000230BD00C730BE000230BF00A7314D2787
:1018800088318831002088312200C10041082500BC
:10189000C30042082200C100C20141082100B0007B
:1018A000220042082100B100250043088031912028
:1018B0008831AE31DE2688312200C1004108250082
:1018C000C400C9302200C10041082100B000C73067
:1018D0002200C20042082100B100C5302200C3002E
:1018E00043082100B200250044082200C400440837
:1018F0002100B300C8309A316D2288312500490893
:101900000319832C842C042DE1302000B800B5305D
:10191000B9000D30BA00B530BB006130BC00B63044
:10192000BD006130BE00B630BF00A031312088312B
:101930000130AE31B426883106302200C2001330A7
:10194000C100AD30890BA22CC10BA22CC20BA22C62
:1019500000320030AE31B42688310B302200C20094
:101960002630C1005D30890BB32CC10BB32CC20BE8
:10197000B32C00320030A13192218831003A031992
:10198000C22CC32CDE2C0030A131B5218831003AA5
:101990000319CB2CCC2CDE2C0030A131D82188317E
:1019A000003A0319D42CD52CDE2CD9302100AD00FF
:1019B000B430AE00AF318A278831042D2500C9012B
:1019C000E1302100B000B530B100C930B2000230C2
:1019D000B300C630B4000230B50098316B208831B6
:1019E000C8302100B8000230B900C930BA00023056
:1019F000BB00C630BC000230BD00C730BE000230A4
:101A0000BF00A7314D27883188310020883122005E
:101A1000C10041082500C30042082200C100C201E4
:101A200041082100B000220042082100B100250039
:101A30004308803191208831AE31DE268831220082
:101A4000C10041082500C400C9302200C10041087E
:101A50002100B000C7302200C20042082100B100BE
:101A6000C5302200C30043082100B200250044080D
:101A70002200C40044082100B300C8309A316D220E
:101A80008831250049080319462D472DC12DEA301C
:101A90002000B800B530B9000D30BA00B630BB0038
:101AA0006130BC00B630BD006130BE00B630BF0052
:101AB000A031312088310130AE319A268831193079
:101AC0002200C2005A30C100B130890B652DC10B14
:101AD000652DC20B652D00320030AE319A2688315B
:101AE0000B302200C2002630C1005D30890B762DFC
:101AF000C10B762DC20B762D00320130A13192211F
:101B00008831003A0319852D862DA12D0130A13190
:101B1000B5218831003A03198E2D8F2DA12D01306A
:101B2000A131D8218831003A0319972D982DA12D84
:101B3000E6302100AD00B430AE00AF318A278831E5
:101B4000C12DEA302100D700B530D800C9302200BD
:101B5000C10041082100D900C6302200C20042085D
:101B60002100DA00C8302200C30043082100DB0056
:101B7000C7302200C40044082100DC009E31AE269C
:101B800088318831002088312200C10041082500B9
:101B9000C30042082200C100C20141082100B00078
:101BA000220042082100B100250043088031912025
:101BB0008831AE31DE2688312200C100410825007F
:101BC000C400C9302200C10041082100B000C73064
:101BD0002200C20042082100B100C5302200C3002B
:101BE00043082100B200250044082200C400440834
:101BF0002100B300C8309A316D2288312500490890
:101C00000319032E042E842EF3302000B800B530C3
:101C1000B9001D30BA00B630BB006130BC00B63030
:101C2000BD006130BE00B630BF00A0313120883128
:101C30000130AE31A726883119302200C2005A3057
:101C4000C100B130890B222EC10B222EC20B222ED5
:101C500000320030AE31A72688310B302200C2009E
:101C60002630C1005D30890B332EC10B332EC20BE1
:101C7000332E00320030A13192218831003A03190D
:101C8000422E432E5E2E0030A131B5218831003A1C
:101C900003194B2E4C2E5E2E0030A131D8218831F5
:101CA000003A0319542E552E5E2EF3302100AD005C
:101CB000B430AE00AF318A278831842E2500C901A7
:101CC000F3302100B000B530B100C930B2000230AD
:101CD000B300C630B4000230B50098316B208831B3
:101CE000C8302100B8000230B900C930BA00023053
:101CF000BB00C630BC000230BD00C730BE000230A1
:101D0000BF00A7314D27883188310020883122005B
:101D1000C10041082500C30042082200C100C201E1
:101D200041082100B000220042082100B100250036
:101D30004308803191208831AE31DE26883122007F
:101D4000C10041082500C400C9302200C10041087B
:101D50002100B000C7302200C20042082100B100BB
:101D6000C5302200C30043082100B200250044080A
:101D70002200C40044082100B300C8309A316D220B
:101D80008831250049080319C62EC72E6E2FFC3056
:101D90002000B800B530B9004130BA00B430BB0003
:101DA0009E30BC00B530BD009430BE00B330BF00E3
:101DB000A03131208831A031F02088310330220059
:101DC000C2000830C1007730890BE42EC10BE42E2D
:101DD000C20BE42E02302000A3000030A400A43186
:101DE00029248831AE310626883103302000A30033
:101DF0000030A400A43129248831AE310626883170
:101E0000A030A4315924883115302200C2004B3053
:101E1000C100BE30890B0A2FC10B0A2FC20B0A2F3B
:101E20000000FC302000B800B530B9004130BA00E5
:101E3000B430BB00A030BC000230BD009430BE0006
:101E4000B330BF00A03131208831250048089031DF
:101E5000452088312200C10041082500C6004608FF
:101E6000031D332F342F662FC901FC302100B00031
:101E7000B530B100C930B2000230B300C630B40092
:101E80000230B50098316B208831C8302100B8008D
:101E90000230B900C930BA000230BB00C630BC0005
:101EA0000230BD00C730BE000230BF00A7314D2751
:101EB000883129302200C2009630C1007F30890B62
:101EC0005F2FC10B5F2FC20B5F2F6E2F00302100E1
:101ED000AD00B530AE00AF318A278831883100209F
:101EE00088312200C10041082500C30042082200B9
:101EF000C100C20141082100B000220042082100B7
:101F0000B10025004308803191208831AE31DE26B2
:101F100088312200C10041082500C400C9302200D8
:101F2000C10041082100B000C7302200C2004208B1
:101F30002100B100C5302200C30043082100B200D7
:101F4000250044082200C40044082100B300C83022
:101F50009A316D228831250049080319B02FB22F1C
:101F600092318B2A92302000B800B530B900783019
:101F7000BA00B230BB007C30BC00B430BD000B30C6
:101F8000BE00B130BF00A031312088310130AE3108
:101F9000592688310030AE314C268831A1314F218D
:101FA0008831C8302100B0000230B100C930B20021
:101FB0000230B300983104208831C9302100B000CC
:101FC0000230B100C630B2000230B300C830B400F5
:101FD0000230B500C730B6000230B7008731B227F3
:101FE000883129302200C2009630C1007F30890B31
:101FF000F72FC10BF72FC20BF72FB02F80314A28D4
:10200000013008002000AE010830AF000030B00001
:10201000AE31C126903120000F0CA900A90C290C6B
:102020000139AA00AB012A08AC002B08AD002D082D
:10203000A4002C08A3003008A6002F08A5002E0835
:10204000A131FB2190312000A9002908AE006830A1
:102050002000A900E430890B2B28A90B2B280000B5
:10206000FF302000AF07FF30B03D3008803AA900B4
:1020700080302902031D3E2801302F020318412819
:102080004228082820002E0808002000A800A901E6
:10209000AA01280803194D284E28B128AB286A0840
:1020A000031953285428AB28A331FA239031200078
:1020B000A5002508A7009528010002302000A600F1
:1020C0000430A500BA30890B6328A50B6328A60B42
:1020D000632800002000A901A90AAA01AA0AAB28C6
:1020E00002302000A6000430A500BA30890B762803
:1020F000A50B7628A60B762800002000A9016D28E4
:1021000002302000A6000430A500BA30890B8628D2
:10211000A50B8628A60B862800002000A901A90A85
:10212000AA01AA0A22008C13AB282708A500A60141
:102130002608003A03199D28AB282508303A0319D0
:102140005C28023A03195D28013A031970280A3AFB
:1021500003198028AB2820002A080319B028B128C9
:102160004F282808031DB528B628D828D2280130C2
:10217000A0317F209031003A0319BF28C028C4281D
:102180002000A901AA01AA0A0130A0319A209031A9
:10219000003A0319CC28CD28D2282000A901A90A89
:1021A000AA01AA0A20002A080319D728D828B72884
:1021B000290808002000CA003F08D3004008D400C6
:1021C0004108D5004208D6004308D7004408D8008B
:1021D0004508D9004608DA005330860000308700F1
:1021E000473FC700C71BF528F7280130F828003003
:1021F0002000C800C9014808D1004908D200510890
:1022000052040319042905292329D309D409D5091E
:10221000D609D709D809D909DA09D30A031D232910
:10222000D40A031D2329D50A031D2329D60A031D19
:102230002329D70A031D2329D80A031D2329D90AD4
:10224000031D2329DA0A2100E21B272928292C292A
:10225000FD30E305FF30E4056208803A2000C70046
:1022600080304702031D3729013021006102031825
:102270003A293B29412901302000CD000030CE0011
:102280004929210062082000CE00210061082000B9
:10229000CD00230056082000D00023005508200060
:1022A000CF0051085204031D562957295C292100EB
:1022B000631D5B295C296129FF302000CF07FF30B7
:1022C000D03D1F302000DB000030DC002400E7019F
:1022D000D229FF302000DB07FF30DC3D0A30A300AD
:1022E000A401A501A601A701A801A901AA015308FB
:1022F000AB005408AC005508AD005608AE005708B6
:10230000AF005808B0005908B1005A08B20099311E
:102310008021903120002408B7002308B600A031A6
:10232000B520903120003608303EC7005B08483E9B
:1023300086000230870047088100FF30CD07FF305C
:10234000CE3DFF30CF07FF30D03D0A30A300A401BF
:10235000A501A601A701A801A901AA015308AB0084
:102360005408AC005508AD005608AE005708AF0041
:102370005808B0005908B1005A08B2009B316B23CD
:10238000903120002308D3002408D4002508D5006C
:102390002608D6002708D7002808D8002908D90021
:1023A0002A08DA0020005C08803AC7008030470223
:1023B000031DDC2901305B02031CDF29E0290D2A03
:1023C0002000530854045504560457045804590473
:1023D0005A04031DEC29ED2969294E08803AC700EB
:1023E00080304702031DF62901304D020318F929F8
:1023F000FA29692920005008803AC7008030470236
:10240000031D042A01304F02031C072A082A0D2A43
:102410002100E3180C2A0D2A6929200051085204D2
:10242000031D132A142A192A2100631D182A192AA8
:10243000362AFF302000DB07FF30DC3D5108520414
:10244000031D232A242A292A2B30CB000030CC005C
:102450002D2A2D30CB000030CC004B08C7005B0884
:10246000483E8600023087004708810020005B0854
:10247000483EC7004708B6005008B8004F08B700EC
:102480004A08A731A427903120003708C000360839
:10249000BF000800AE31FD2692318B170B172500C7
:1024A000C901C601C801BE01C701C70AB801B80AFF
:1024B000C501C20115302200C2004B30C100BE3040
:1024C000890B602AC10B602AC20B602A0000200021
:1024D0008E1A6B2A6C2A722A2500B801AE31CF26DB
:1024E0009231752AAE311026923120000E1C792AC5
:1024F0007A2A7E2A2500BF01BF0A802A2500BF0153
:1025000020008E18842A852A892A2500BE01BE0A49
:102510008B2A2500BE0196302000B800B130B900EA
:102520006E30BA00B430BB009330BC00B230BD0096
:102530005030BE00B430BF00A031312092310330A2
:102540002200C2000830C1007730890BA52AC10BD8
:10255000A52AC20BA52A96302000B800B130B900D8
:102560003230BA00B430BB009330BC00B230BD0092
:102570005030BE00B430BF00A0311820923103307B
:102580002200C2000830C1007730890BC52AC10B78
:10259000C52AC20BC52A22008C138D12EB2AC93022
:1025A0002200C10041082100B500C7302200C2004E
:1025B00042082100B600C5302200C30043082100B4
:1025C000B700C2302200C40044082100B800C8305F
:1025D000843143249231250049080319F02AF12A55
:1025E000CF2A01302000A3000030A400A431292408
:1025F000923103302200C2000830C1007730890BCD
:10260000FF2AC10BFF2AC20BFF2A2500C701A231F6
:10261000202292312500C901C90A0030AE31592665
:1026200092310030AE31662692310130AE317326E0
:10263000923103302200C2000830C1007730890B8C
:102640001F2BC10B1F2BC20B1F2B96302000B80075
:10265000B130B9005F30BA00B430BB009330BC0079
:10266000B230BD005030BE00B430BF00A0311820E1
:10267000923103302200C2000830C1007730890B4C
:102680003F2BC10B3F2BC20B3F2B05302000B80066
:10269000B630B900A530BA00B330BB006130BC0021
:1026A000B630BD006130BE00B630BF00A031312071
:1026B00092310130AE31802692310130AE318D261B
:1026C000923115302200C2004B30C100BE30890B60
:1026D000672BC10B672BC20B672B00000130AE319B
:1026E0004C26923129302200C2009630C1007F3042
:1026F000890B782BC10B782BC20B782B0130A131C1
:1027000092219231003A0319862B872BA22B01309C
:10271000A131B5219231003A03198F2B902BA22BB6
:102720000130A131D8219231003A0319982B992B0D
:10273000A22B1A302100AD00B530AE00AF318A2790
:102740009231D02B2500C9010030AE318026923164
:102750000030AE318D26923105302100B000B63008
:10276000B100C930B2000230B300C630B40002304C
:10277000B50098316B209231C8302100B80002308A
:10278000B900C930BA000230BB00C630BC0002300C
:10279000BD00C730BE000230BF00A7314D279231C7
:1027A0008831002092312200C10041082500C30079
:1027B00042082200C100C20141082100B0002200ED
:1027C00042082100B1002500430880319120923158
:1027D000AE31DE2692312200C10041082500C4003E
:1027E000C9302200C10041082100B000C7302200DA
:1027F000C20042082100B100C5302200C3004308D6
:102800002100B200250044082200C4004408210031
:10281000B300C8309A316D22923115302200C200C7
:102820004B30C100BE30890B132CC10B132CC20BD3
:10283000132C00000030AE31802692310030AE31D2
:102840008D269231250049080319272C282C9B2C12
:1028500015302000B800B630B900A530BA00B2304B
:10286000BB006130BC00B630BD006130BE00B63088
:10287000BF00A031312092310030AE31802692313C
:102880000030AE318D2692310B302200C20026304E
:10289000C1005D30890B4A2CC10B4A2CC20B4A2C5B
:1028A00000320130A13192219231003A031D592C9E
:1028B0005A2C752C0130A131B5219231003A031DFB
:1028C000622C632C752C0130A131D8219231003A51
:1028D000031D6B2C6C2C752C26302100AD00B530FF
:1028E000AE00AF318A2792319B2C2500C9011530EB
:1028F0002100B000B630B100C930B2000230B300E0
:10290000C630B4000230B50098316B209231C83027
:102910002100B8000230B900C930BA000230BB0053
:10292000C630BC000230BD00C730BE000230BF0060
:10293000A7314D2792318831002092312200C10009
:1029400041082500C30042082200C100C20141081D
:102950002100B000220042082100B10025004308F8
:10296000803191209231AE31DE2692312200C100B9
:1029700041082500C400C9302200C10041082100DF
:10298000B000C7302200C20042082100B100C530AB
:102990002200C30043082100B200250044082200A1
:1029A000C40044082100B300C8309A316D2292312E
:1029B000250049080319DE2C9C31702C9C31E42C35
:1029C0003E302100AD00B530AE00AF318A279431E2
:1029D0008831002094312200C10041082500C30045
:1029E00042082200C100C20141082100B0002200BB
:1029F00042082100B1002500430880319120943124
:102A0000AE31DE2694312200C10041082500C40009
:102A1000C9302200C10041082100B000C7302200A7
:102A2000C20042082100B100C5302200C3004308A3
:102A30002100B200250044082200C40044082100FF
:102A4000B300C8309A316D2294312500490803192A
:102A50002A2D2B2D962D35302000B800B630B90028
:102A60001430BA00B430BB006130BC00B630BD00D9
:102A70006130BE00B630BF00A0313120943101304A
:102A8000AE318026943106302200C2001330C100DE
:102A9000AD30890B492DC10B492DC20B492D003298
:102AA0000030AE318026943125003F080319592D9E
:102AB0005A2D962D48089031452094312200C100AE
:102AC00041082500C6004608031D672D682D8E2D80
:102AD000C90135302100B000B630B100C930B200B4
:102AE0000230B300C630B4000230B50098316B201C
:102AF0009431C8302100B8000230B900C930BA00A2
:102B00000230BB00C630BC000230BD00C730BE0082
:102B10000230BF00A7314D279431962D4A30210055
:102B2000AD00B530AE00AF318A2794318831002036
:102B300094312200C10041082500C3004208220050
:102B4000C100C20141082100B0002200420821005A
:102B5000B10025004308803191209431AE31DE264A
:102B600094312200C10041082500C400C930220070
:102B7000C10041082100B000C7302200C200420855
:102B80002100B100C5302200C30043082100B2007B
:102B9000250044082200C40044082100B300C830C6
:102BA0009A316D229431250049080319D82DD92D69
:102BB000472E3D302000B800B630B900A930BA0029
:102BC000B530BB006130BC00B630BD006130BE0026
:102BD000B630BF00A031312094310130AE318026B3
:102BE000943115302200C2004B30C100BE30890B39
:102BF000F72DC10BF72DC20BF72D00000030AE31C1
:102C00008026943115302200C2004B30C100BE3006
:102C1000890B082EC10B082EC20B082E00000130B4
:102C2000A13192219431003A0319172E182E212E2A
:102C300056302100AD00B530AE00AF318A27943157
:102C4000472E2500C9013D302100B000B630B1004B
:102C5000C930B2000230B300C630B4000230B50053
:102C600098316B209431C8302100B8000230B9008F
:102C7000C930BA000230BB00C630BC000230BD0013
:102C8000C730BE000230BF00A7314D2794318831D4
:102C9000002094312200C10041082500C3004208F1
:102CA0002200C100C20141082100B00022004208F8
:102CB0002100B10025004308803191209431AE31CC
:102CC000DE2694312200C10041082500C400C9302D
:102CD0002200C10041082100B000C7302200C2001C
:102CE00042082100B100C5302200C3004308210082
:102CF000B200250044082200C40044082100B300AB
:102D0000C8309A316D229431250049080319892E63
:102D10008A2E012F45302000B800B630B900483067
:102D2000BA00B130BB006130BC00B630BD006130CC
:102D3000BE00B630BF00A031312094310130AE3139
:102D40008026943115302200C2004B30C100BE30C5
:102D5000890BA82EC10BA82EC20BA82E0000003094
:102D6000AE318026943115302200C2004B30C100B4
:102D7000BE30890BB92EC10BB92EC20BB92E000083
:102D80000030A13192219431003A0319C82EC92E86
:102D9000DB2E0130A131B5219431003A0319D12E37
:102DA000D22EDB2E62302100AD00B530AE00AF3147
:102DB0008A279431012F2500C90145302100B00038
:102DC000B630B100C930B2000230B300C630B40032
:102DD0000230B50098316B209431C8302100B80022
:102DE0000230B900C930BA000230BB00C630BC00A6
:102DF0000230BD00C730BE000230BF00A7314D27F2
:102E000094318831002094312200C100410825000E
:102E1000C30042082200C100C20141082100B000E5
:102E2000220042082100B100250043088031912092
:102E30009431AE31DE2694312200C10041082500D4
:102E4000C400C9302200C10041082100B000C730D1
:102E50002200C20042082100B100C5302200C30098
:102E600043082100B200250044082200C4004408A1
:102E70002100B300C8309A316D22943125004908F1
:102E80000319432F442FBB2F4D302000B800B6301C
:102E9000B9005C30BA00B130BB006130BC00B63064
:102EA000BD006130BE00B630BF00A031312094318A
:102EB0000130AE318026943115302200C2004B30F3
:102EC000C100BE30890B622FC10B622FC20B622F73
:102ED00000000030AE318026943115302200C2004F
:102EE0004B30C100BE30890B732FC10B732FC20B47
:102EF000732F00000030A131B5219431003A03193D
:102F0000822F832F952F0130A131D8219431003A9F
:102F100003198B2F8C2F952F6E302100AD00B5300B
:102F2000AE00AF318A279431BB2F2500C9014D3047
:102F30002100B000B630B100C930B2000230B30099
:102F4000C630B4000230B50098316B209431C830DF
:102F50002100B8000230B900C930BA000230BB000D
:102F6000C630BC000230BD00C730BE000230BF001A
:102F7000A7314D2794318831002094312200C100BF
:102F800041082500C30042082200C100C2014108D7
:102F90002100B000220042082100B10025004308B2
:102FA000803191209431AE31DE2694312200C1006F
:102FB00041082500C400C9302200C1004108210099
:102FC000B000C7302200C20042082100B100C53065
:102FD0002200C30043082100B2002500440822005B
:102FE000C40044082100B300C8309A316D229431E6
:102FF000250049080319FE2F883105288831C0288B
:1030000016302100970008002100B7016428200035
:103010000F190B280C282128A2302100AD00B03058
:10302000AE00AF318A2798312100B701B70A3008C6
:103030008600310887008101320886003308870046
:10304000810120006A080319262827286428A33153
:10305000FA2398312100B4003408B6005428010046
:1030600064287030AD00B130AE00AF318A2798319E
:10307000210030088600310887008101320886006F
:1030800033088700810102302100B5000430B4000C
:10309000BA30890B4928B40B4928B50B49280000E0
:1030A0002100B701B70A64283608B400B501350815
:1030B000003A03195C2864283408303A03192F2891
:1030C000043A0319312864282100370803196928B4
:1030D0006A28072808003430860002308700C13093
:1030E00084000030850014302100B60016001A005C
:1030F000B60B7628E530860001308700B7308400B3
:10310000003085000A30B60016001A00B60B84287D
:103110000130AE31662698310130AE3173269831D8
:103120000030AE31592698310030AE314C269831FE
:10313000210031082000AF00210030082000AE003F
:103140006F30B000B230B1000B30B200B130B3001C
:103150006130B400B630B500A63153269831C13085
:103160002000B3000030B400210031082000B60078
:10317000210030082000B500AF31A0279831200091
:1031800034082100D600200033082100D50056085D
:103190002000B400210055082000B300B730B5006E
:1031A0000030B600AF31A02798312000340821004C
:1031B000AE00200033082100AD00AF318A279831DE
:1031C000A6310B26983120000F1DE728E828E328B8
:1031D0002100320886003308870081013408860008
:1031E00035088700810108002000AB002B08A900EA
:1031F00029082100E9000030AF31752798319C3053
:103200002000A900D730890B0329A90B032903301B
:10321000A031002098311A302000A900F830890B25
:103220000F29A90B0F2900000330A031002098318D
:103230001A302000A900F830890B1C29A90B1C2981
:1032400000000330A031002098311A302000A9007E
:10325000F830890B2929A90B292900000230A03157
:10326000002098311A302000A900F830890B362947
:10327000A90B362900002830A031002098310230F7
:103280002000AA000430A900BA30890B4529A90BF7
:103290004529AA0B452900000C30A03100209831A7
:1032A00002302000AA000430A900BA30890B562948
:1032B000A90B5629AA0B562900000130A031002085
:1032C000983102302000AA000430A900BA30890BDE
:1032D0006729A90B6729AA0B672900000630A031CE
:1032E0000020983102302000AA000430A900BA3032
:1032F000890B7829A90B7829AA0B782900000800E6
:103300002000B5012B30860000308700473FB30016
:10331000B31F8B298C29AE292000AB09AC09AD095C
:10332000AE09AF09B009B109B209AB0A031DAB2957
:10333000AC0A031DAB29AD0A031DAB29AE0A031D60
:10334000AB29AF0A031DAB29B00A031DAB29B10A93
:10335000031DAB29B20A2000B501B50A233086004F
:1033600000308700473F2000B300B31FB829B929B8
:10337000D8292000A309A409A509A609A709A80915
:10338000A909AA09A30A031DD829A40A031DD8293B
:10339000A50A031DD829A60A031DD829A70A031DBB
:1033A000D829A80A031DD829A90A031DD829AA0AC1
:1033B00020002308240425042604270428042904C3
:1033C0002A040319E429E529382AB401B40AF429A6
:1033D000A335A40DA50DA60DA70DA80DA90DAA0D29
:1033E0000130B3003308B407AA1FF729F829E829E8
:1033F0002A083202031D162A29083102031D162A43
:1034000028083002031D162A27082F02031D162A3A
:1034100026082E02031D162A25082D02031D162A32
:1034200024082C02031D162A23082B02031C192A28
:103430001A2A2A2A2308AB022408AC3B2508AD3BF4
:103440002608AE3B2708AF3B2808B03B2908B13B14
:103450002A08B23BAA36A90CA80CA70CA60CA50CEE
:10346000A40CA30C0130B402031D372A382AF82912
:10347000350803193C2A3D2A5B2AAB09AC09AD0982
:10348000AE09AF09B009B109B209AB0A031D5B2A45
:10349000AC0A031D5B2AAD0A031D5B2AAE0A031D9D
:1034A0005B2AAF0A031D5B2AB00A031D5B2AB10A1F
:1034B000031D5B2AB20A20002B08A3002C08A400DD
:1034C0002D08A5002E08A6002F08A7003008A80088
:1034D0003108A9003208AA0008002100BA004E2BCA
:1034E000AD3186259A312100B4003408B600613030
:1034F0003606031D7C2A7D2AAA2A8330AD00B1300E
:10350000AE00AF318A279A3121003A088600023096
:1035100087008101810A300886000230870081011E
:10352000810A32088600023087008101810A310851
:10353000860002308700810102302100B50004308E
:10354000B400BA30890BA22AB40BA22AB50BA22A66
:1035500000006A2B1D30AD00A930AE00AF318A27C4
:103560009A316A2B7530A5317D259A316A2B7630D8
:10357000A5317D259A316A2B7730A5317D259A3189
:103580002100B4003408B70077303706031DC92A7C
:10359000CA2A6A2BCC30AD00B030AE00AF318A27DA
:1035A0009A316A2BAD3181259A312100B40034085B
:1035B000B8003D303806031DDE2ADF2A082B8C3088
:1035C000AD00B030AE00AF318A279A310230210011
:1035D000B5000430B400BA30890BEC2AB40BEC2AE5
:1035E000B50BEC2A000096302000B800B130B900CD
:1035F0008530BA00B230BB006130BC00B630BD00CF
:103600006130BE00B630BF00A03118209A316A2B5D
:103610001D30AD00A930AE00AF318A279A316A2B38
:10362000AD316D259A312100B4003408B9002A303B
:103630003906031D1C2B1D2B462B6F30AD00A83007
:10364000AE00AF318A279A3102302100B500043034
:10365000B400BA30890B2A2BB40B2A2BB50B2A2BBA
:10366000000096302000B800B130B9008130BA00B7
:10367000B230BB006130BC00B630BD006130BE006E
:10368000B630BF00A03118209A316A2B1D30AD0032
:10369000A930AE00AF318A279A316A2B3308B400C3
:1036A000B5013508003A0319562B6A2B34082A3A1B
:1036B0000319102B173A0319D22A5C3A0319702AFE
:1036C000143A0319B22A033A0319B72A013A031923
:1036D000BC2A6A2B08002000B50123308600003088
:1036E0008700473FB300B31F762B772B992B200021
:1036F000A309A409A509A609A709A809A909AA094E
:10370000A30A031D962BA40A031D962BA50A031DCD
:10371000962BA60A031D962BA70A031D962BA80A13
:10372000031D962BA90A031D962BAA0A2000B5019A
:10373000B50A2B30860000308700473F2000B300D9
:10374000B31FA32BA42BC82B2000AB09AC09AD09D8
:10375000AE09AF09B009B109B209AB0A031DC32B09
:10376000AC0A031DC32BAD0A031DC32BAE0A031DF8
:10377000C32BAF0A031DC32BB00A031DC32BB10A11
:10378000031DC32BB20A01302000B3003308B50675
:10379000363086000030870008302000B30000304B
:1037A0001E00B30BD02B2308240425042604270471
:1037B000280429042A040319DE2BDF2B3B2CB40137
:1037C000B40AEE2BA335A40DA50DA60DA70DA80DCB
:1037D000A90DAA0D0130B3003308B407AA1FF12BBD
:1037E000F22BE22BB635B70DB80DB90DBA0DBB0DE6
:1037F000BC0DBD0D2A083202031D182C2908310208
:10380000031D182C28083002031D182C27082F022E
:10381000031D182C26082E02031D182C25082D0226
:10382000031D182C24082C02031D182C23082B021E
:10383000031C1B2C1C2C2D2C2308AB022408AC3B96
:103840002508AD3B2608AE3B2708AF3B2808B03B18
:103850002908B13B2A08B23B3614AA36A90CA80C99
:10386000A70CA60CA50CA40CA30C0130B402031DDC
:103870003A2C3B2CF22B350803193F2C402C5E2CA4
:10388000B609B709B809B909BA09BB09BC09BD0924
:10389000B60A031D5E2CB70A031D5E2CB80A031D71
:1038A0005E2CB90A031D5E2CBA0A031D5E2CBB0AEE
:1038B000031D5E2CBC0A031D5E2CBD0A20003608C9
:1038C000A3003708A4003808A5003908A6003A0864
:1038D000A7003B08A8003C08A9003D08AA00080072
:1038E00025302000B800B630B9000530BA00B43039
:1038F000BB006130BC00B630BD006130BE00B630E8
:10390000BF00A03131209C310130AE3180269C3186
:1039100006302200C2001330C100AD30890B8E2C5E
:10392000C10B8E2CC20B8E2C00320030AE318026A3
:103930009C3125003F0803199E2C9F2CE42C9430C9
:103940002100AD00A830AE00AF318A279C312500A0
:103950004808903145209C312200C10041082500D3
:10396000C6004608031DB52CB62CDC2CC901253039
:103970002100B000B630B100C930B2000230B3004F
:10398000C630B4000230B50098316B209C31C8308D
:103990002100B8000230B900C930BA000230BB00C3
:1039A000C630BC000230BD00C730BE000230BF00D0
:1039B000A7314D279C31E42C32302100AD00B530C9
:1039C000AE00AF318A279C31883100209C31220023
:1039D000C10041082500C30042082200C100C20105
:1039E00041082100B000220042082100B10025005A
:1039F0004308803191209C31AE31DE269C3122007B
:103A0000C10041082500C400C9302200C10041089E
:103A10002100B000C7302200C20042082100B100DE
:103A2000C5302200C30043082100B200250044082D
:103A30002200C40044082100B300C8309A316D222E
:103A40009C31250049080319262D282D9431E82C96
:103A50002D302000B800B630B9002330BA00B430A1
:103A6000BB006130BC00B630BD006130BE00B63076
:103A7000BF00A03131209C310130AE3180269C3115
:103A800006302200C2001330C100AD30890B462D34
:103A9000C10B462DC20B462D00320030AE318026C0
:103AA0009C3125003F080319562D572D262D480817
:103AB000903145209C312200C10041082500C600FC
:103AC0004608031D642D662D9431E02CC9012D306C
:103AD0002100B000B630B100C930B2000230B300EE
:103AE000C630B4000230B50098316B209C31C8302C
:103AF0002100B8000230B900C930BA000230BB0062
:103B0000C630BC000230BD00C730BE000230BF006E
:103B1000A7314D279C31262D2100A90020005D08EA
:103B200086008701403FDF00413FE0005F088400DE
:103B3000600885001200253A031D9F2DA02D882EB8
:103B40005D08860087010130810741310318810A31
:103B50002300D501D6012100E301E401FF30E1009B
:103B6000FF30E20020005D0886008701403FDF0053
:103B7000413FE0005F088400600885001200643A5D
:103B80000319C32DC42DD52D5D0886008701403F44
:103B9000DF00413FE0005F088400600885001200FC
:103BA000693A031DD42DD52D232E5D08860087018B
:103BB0000130810741310318810A5E0886008701C0
:103BC00001088400850102308107003FDF00013FCA
:103BD000E0005F082100A000200060082100A10093
:103BE000890D893B8909A200A300A400A500A600B5
:103BF000A70020082000BF00210021082000C000ED
:103C0000210022082000C100210023082000C2005A
:103C1000210024082000C300210025082000C40042
:103C2000210026082000C500210027082000C6002A
:103C3000210029089031DA209D3120004008DE0063
:103C40003F08DD00AD2E5D0886008701403FDF00A4
:103C5000413FE0005F0884006008850012006E3A72
:103C6000031D332E342E532E5D088600870101304C
:103C7000810741310318810A5E0886008701403FB1
:103C800084008501810A0008DF005F082100A80088
:103C90002808860087015F08C03F6008C13F2000F8
:103CA000DD01DE01AD2E5D0886008701403FDF00AB
:103CB000413FE0005F088400600885001200253A5B
:103CC000031D632E642E7F2E5D0886008701013060
:103CD000810741310318810A2530A6000030A70072
:103CE000210029082000DF005F08A800A631A426D3
:103CF0009D3101302000DD000030DE00AD2E5D087A
:103D0000860087010130810741310318810A4F2E57
:103D10005D0886008701403FDF00413FE0005F080B
:103D20008400600885000008E100E2016108A60047
:103D30006208A700210029082000E3006308A8000A
:103D4000A631A4269D3120005D0886008701013040
:103D5000810741310318810A792E0800203086003E
:103D6000023087002A3084000130850014302100A1
:103D7000DD0016001A00DD0BB92EDB3086000130A5
:103D8000870020308400013085000A30DD001600F5
:103D90001A00DD0BC72E0130AE3166269E31013090
:103DA000AE3173269E310030AE3159269E3121004E
:103DB00058082000AF00210057082000AE006F30E7
:103DC000B000B230B1004B30B200B230B300F630C8
:103DD000B400B030B500A63153269E312A30200001
:103DE000B3000130B400210058082000B6002100C3
:103DF00057082000B500AF31A0279E3120003408BD
:103E00002200BF00200033082200BE003F0820002F
:103E1000B40022003E082000B3002030B50001307D
:103E2000B600AF31A0279E31200034082100AE003B
:103E3000200033082100AD00AF318A279E31A63122
:103E40000B269E3121005B088600023087000108A6
:103E5000903145209E312100DD005D082200C00028
:103E60000B302100DE002630DD005D30890B362F5F
:103E7000DD0B362FDE0B362F0032220040080319EF
:103E8000422F432F772F21005908860002308700E8
:103E900081015A088600023087008101EA30200043
:103EA000AE00B530AF007430B000B230B1005D305C
:103EB000B200B230B3000B30B400B130B500A6315F
:103EC00053269E31DB302100B8000030B900D930D4
:103ED000BA000030BB00DA30BC000030BD00DC307E
:103EE000BE000030BF00A7314D279E31FF2FEA30C2
:103EF0002000AE00B530AF000D30B000B630B100DC
:103F00006130B200B630B3006130B400B630B500F5
:103F1000A63153269E310030AE3166269E310130E7
:103F2000AE3173269E310030AE3159269E310130BC
:103F3000AE319A269E3119302100DE005A30DD0064
:103F4000B130890BA12FDD0BA12FDE0BA12F003289
:103F50000030AE319A269E3115302100DE004B3004
:103F6000DD00BE30890BB22FDD0BB22FDE0BB22F7E
:103F700000000130A13192219E31003A0319C12F76
:103F8000C22FE92F0130A131B5219E31003A03192A
:103F9000CA2FCB2FE92F0130A131D8219E31003A11
:103FA0000319D32FD42FE92FEA302000AE00B5300B
:103FB000AF000D30B000B630B100E730B200B33022
:103FC000B3006A30B400B330B500A63153269E3139
:103FD000FF2F210059088600023087008101EA3056
:103FE000B000B530B100D930B2000030B300DA30E3
:103FF000B4000030B50098316B209E31622F08006C
:104000002000A8002100EA0120002808F039AF3183
:10401000CF27A03120002808A7000330A735FF3E96
:10402000031D0E282735F039AF31CF27A031080006
:1040300046309831F420A03120003908AF0038080C
:10404000AE003B08B1003A08B0003D08B3003C08A0
:10405000B2003F08B5003E08B400A6315326A03197
:1040600008004E309831F420A03120003908AF000C
:104070003808AE003B08B1003A08B0003D08B30074
:104080003C08B2003F08B5003E08B400A6315326F4
:10409000A031080020002408A6002308A500542809
:1040A0000130A3070030A43D2308860024088700C0
:1040B0000108031D5C285D28502825082302A30061
:1040C0002608243BA400080023001908F000200063
:1040D0006C08C53E86000130870070088100013001
:1040E000F0007008EC0708306C02031C782879286F
:1040F0007A28EC010130F0007008EA07080020007F
:10410000A400A30124080319862887288D288F1B63
:104110008A288B288D28A301A30A2408031D91282F
:10412000922898288F1F952896289828A301A30ADB
:10413000230808002000A400A30124080319A128D3
:10414000A228A8280F19A528A628A828A301A30AF1
:104150002408031DAC28AD28B3280F1DB028B128B2
:10416000B328A301A30A2308080020003708803AD7
:10417000B80080303802031DBF2801303602031812
:10418000C228C328D02820003609B8003709B90052
:10419000B80A0319B90A3808B6003908B700D02898
:1041A0000800220090018F018C018D018E010830E2
:1041B000210090008C01CF308D00BF308E00FF3089
:1041C0008F0023008F0137308D0090013C308C0030
:1041D000240090018D012100951722009D01080007
:1041E00022000C1706302000A4001330A300AD30CD
:1041F000890BF828A30BF828A40BF828003222001A
:104200000C1306302000A4001330A300AD30890B3E
:104210000729A30B0729A40B072900320800200057
:10422000AC01AD01222929082C0784002A082D3D64
:1042300085000008AF31E727A13101302000AC072D
:104240000030AD3D29082C0784002A082D3D85004B
:104250001200031D2C292D29132908002000A60077
:104260002608A500A50DA50D21001D082000250686
:104270008339250621009D001D140D30890B3E2930
:10428000000021009D149D184629472943291C0838
:104290002000A40021001B082000A30008002030FB
:1042A0002100AD00A830AE00AF318A27A131210036
:1042B000B101B201A2312022A13101302100B107A8
:1042C0000030B23D3208803AB00080303002031D29
:1042D0006B2902303102031C6E296F295A2908000C
:1042E000083021006C0203187629772990296D087F
:1042F000CD3E860001308700010823009A0001307E
:10430000F00070082100ED0708306D02031C8929B8
:104310008A298B29ED010130F0007008EC07912902
:10432000111208002000A400A301240803199929F0
:104330009A29A4290F1C9D299E29A4298F18A129F7
:10434000A229A429A301A30A2408031DA829A92995
:10435000B3290F18AC29AD29B3298F1CB029B12975
:10436000B329A301A30A230808002000A400A30185
:1043700024080319BC29BD29C7298F1DC029C129BB
:10438000C7290F1AC429C529C729A301A30A2408CC
:10439000031DCB29CC29D6298F19CF29D029D6297D
:1043A0000F1ED329D429D629A301A30A2308080064
:1043B0002000A400A30124080319DF29E029EA2929
:1043C0008F1EE329E429EA290F1BE729E829EA29B6
:1043D000A301A30A2408031DEE29EF29F9298F1A46
:1043E000F229F329F9290F1FF629F729F929A30141
:1043F000A30A230808002000A80023032404031DA7
:10440000022A032A0E2A0130A700250A082AA73506
:10441000890B072A27082804A8001F2A2308240438
:10442000031D132A142A1F2A0130A700250A192A5E
:10443000A735890B182A2708FF3A2805A800080085
:104440002000A801A901A231E822A2310B302000EE
:10445000A7002630A6005D30890B2C2AA60B2C2A3B
:10446000A70B2C2A003201302000A8070030A93DFC
:104470002908803AA60080302602031D412A023016
:104480002802031C442A452A232A080020002A085F
:10449000B0002908AF002808B2002708B100320890
:1044A000AC003108AB00B10A0319B20A2B08860030
:1044B0002C0887003008AE002F08AD00AF0A0319A2
:1044C000B00A2D0884002E0885000008C03F890826
:1044D000031D6B2A6C2A4F2A08002D343E342034E9
:1044E0004534523452344534553452343A342034FD
:1044F000003400340034003400340034003400341C
:1045000000342D343E342034453452345234453452
:10451000553452343A3420340034003400340034FA
:10452000003400340034003400342000B500B301FE
:10453000B401AD2A3208AF00B0012F08A600300840
:10454000A7002E08B1003108A800A631A426A23188
:1045500001302000B3070030B43D33083507AF0009
:104560002F088600023087000108B0003008B20032
:104570003208031DBC2ABD2A9A2A0800F4007008DC
:1045800071040319C42AC52AD82A7435A03E8600AE
:10459000013087007008C03F7108C13F7208F30006
:1045A0007408AC3E86000130870073088100E72A5A
:1045B0007435A03E8600013087000030C03F1030C7
:1045C000C13F7408AC3E86000130870081010800BD
:1045D0002000A401A50122000D1606302000A30032
:1045E0003030890BF12AA30BF12A000022000D12B2
:1045F00006302000A3003030890BFC2AA30BFC2AD4
:10460000000001302000A4070030A53D2508803AB5
:10461000A30080302302031D0F2B32302402031C21
:10462000122B132BEB2A080023003C100230FA0057
:104630007A08BB00232BAD314F25A331402BAD3180
:104640005425A331402B2E08FA007A08F9000430D3
:10465000A03E860001308700413F8A00403F0A00AB
:10466000A331FB00FC017C08003A0319382B1F2BF7
:104670007B08023A03191B2B013A03191B2B1F2B32
:1046800008002000A40021006C080319482B492BC6
:10469000432B111A4C2B4D2B522B200024082300A6
:1046A0009A006B2B111220002408A3007D08CD3E38
:1046B000860001308700230881000130A300230811
:1046C000FD0708307D02031C662B672B682BFD015C
:1046D00001302100EC022100111608008731FD276E
:1046E000A33123003C1C752B762B842BAD318B25FD
:1046F000A331003A03197D2B7E2B842B0F30200031
:10470000A00020082300BA0023003A082000A000DF
:10471000A101A035A10D003020078400A830213D63
:104720008500013F8A00003F0A00A3312000A2005B
:1047300022082300BA0008002300BC15AC2BAD31C1
:104740004F25A331CA2BAD312425A3310330CA2B09
:10475000AD315425A331CA2B2C08FA007A08F90090
:1047600021088A0020080A00A331FB00FC017C0814
:10477000003A0319BC2BA82B7B08013A0319A82B7C
:10478000033A03199F2B013A03199F2B073A031988
:10479000A32BA82B08002000AC00E62B2908BF3E65
:1047A000A0310020A331F92B2908933EA03100202D
:1047B000A331F92B2908D33EA0310020A331F92BD6
:1047C00029087F3EA0310020A331F92B2C08AA0034
:1047D000AB012B08003A0319EE2BE02B2A08023A12
:1047E0000319CE2B013A0319D42B073A0319DA2BFC
:1047F000E02B080020006A080319FF2B002CFA2B7D
:104800006B08BD3E8600013087000108A300230825
:104810002100EB0020006B08C53E860001308700B8
:104820000108A3002308A4000130A3002308EB071C
:1048300008306B02031C1D2C1E2C1F2CEB012100C9
:10484000911201302000EA02210091162000240874
:1048500008002000A601A701482C22008D16683010
:104860002000A500E430890B332CA50B332C00006D
:1048700022008D1268302000A500E430890B3E2C08
:10488000A50B3E2C000001302000A6070030A73DFC
:104890002708803AA5002408803A2502031D522CDF
:1048A00023082602031C552C562C2D2C22008D1279
:1048B00008002000B300B401B50190310220A431FA
:1048C0002000B10034083307B200320886000230FD
:1048D0008700310881000130B4070030B53D35084C
:1048E000803AB10080303102031D782C143034023C
:1048F000031C7B2C7C2C5D2C60302000B100330825
:10490000133E86000230870031088100AE31332625
:10491000A43108002100AA00200065082100AC0095
:10492000200064082100AB00DF01E001AD2CAB30BA
:104930002000E7006708DD006608E8006808DE0080
:1049400021002A089D318C25A43120005D0821001A
:10495000DF0720005E082100E03D2B0884002C08C2
:1049600085001200031DB52CB62C972C6008200082
:10497000E50021005F082000E40008002100B400E9
:10498000AF302000E90069082100B300340820009E
:10499000E90069082100B500B601B701B801B90105
:1049A0002E082000E50021002D082000E400B3308F
:1049B000E9006908E600B530A4318A24A43120005A
:1049C00065082100B200200064082100B10036080B
:1049D00034072000E9006908860002308700810161
:1049E00021003208AE003108AD00080020006C083C
:1049F000BD3E860001308700810123001D1D012D71
:104A0000022D0F2D20006C08BD3E8600013087006E
:104A10008114220048088A0047080A00A5312300B3
:104A20009D1C132D142D212D20006C08BD3E8600E9
:104A3000013087000115220046088A0045080A0057
:104A4000A53120006C08BD3E8600013087000108BA
:104A500003192B2D2C2D332D230058088A005708BD
:104A60000A00A531362DA0316420A4310800AD31F3
:104A70002125A531FA0023003708860087017A082E
:104A800081000130FA007A08B7070130B80200301F
:104A9000B93B3808390403194E2D4F2D542DAD3133
:104AA0003325A53105307C2DBC155E2DAD31632538
:104AB000A5317C2DAD315E25A5317C2D2C08FA0069
:104AC0007A08F90021088A0020080A00A531FB00B5
:104AD000FC017C08003A03196E2D5A2D7B08013A1F
:104AE00003195A2D033A0319562D013A0319562D6D
:104AF000073A03195A2D5A2D08002000A40024005B
:104B000016141618842D852D812D3230910014181D
:104B10008A2D8B2D872D14198E2D8F2D8B2D2000F6
:104B20002408240091001418962D972D932D141904
:104B30009A2D9B2D972D961496189F2DA02D9C2D68
:104B4000333091001418A52DA62DA22D1419A92DCE
:104B5000AA2DA62D9615141CAE2DAF2DAB2D110828
:104B60002000A3002308A500240096161616161A86
:104B7000BA2DBB2DB72D16151619BF2DC02DBC2D66
:104B800020002508080021009112F6302000A30023
:104B90002430A400AD31EB25A53121001112703075
:104BA0002000A3002130A400AD31F425A531083048
:104BB00023009F0090309D0024309E0040309B00D9
:104BC00003309C0016302000A3002D30A400AD312E
:104BD000D925A5312B302000A3002D30A400AD3104
:104BE000E225A53127302000A3002D30A400AD31EF
:104BF000D025A5312100EB01FD01ED010830200099
:104C0000A50025082100EC002000EC01EB01EA01E1
:104C10002100911608002000A801A9012000AA0186
:104C2000AB01A231E822A6310B302000A7002630CC
:104C3000A6005D30890B1A2EA60B1A2EA70B1A2E72
:104C4000003201302000AA070030AB3D2B08803A2B
:104C5000A60080302602031D2F2E04302A02031CDA
:104C6000322E332E112E0B302000A7002630A60046
:104C70005D30890B392EA60B392EA70B392E003249
:104C800001302000A8070030A93D2908803AA6007D
:104C900080302602031D4E2E04302802031C512EA4
:104CA000522E0E2E0800AD31FD25A6310630A03162
:104CB0000020A63102302000B7000430B600BA3020
:104CC000890B602EB60B602EB70B602E0000200003
:104CD000A901A90A0130A331CB23A63120002F0856
:104CE000AA002E08A900A1310F21A6312000A90198
:104CF000A90A0230A331CB23A63120003108AA0033
:104D00003008A900A1310F21A6312000A901A90A6C
:104D10000330A331CB23A63120003308AA00320888
:104D2000A900A1310F21A6312000A901A90A043050
:104D3000A331CB23A63120003508AA003408A900EE
:104D4000A1310F21A6310800200028080319A92E3F
:104D5000AA2EAF2E2808031DAE2EAF2EB42E260885
:104D6000AD31B025A631F52E2808033E8600870117
:104D7000160001040319BD2EBE2EDB2E2808033EAB
:104D800086008701403FA900413FAA00280A86000B
:104D90008701403FAB00413FAC002C08803AAD009A
:104DA0002A08803A2D02031DD72E29082B0203184A
:104DB000DA2EDB2EF52E20002608A9002808860012
:104DC0008701280A8400850100080107AA002A0833
:104DD00086000230870029088100280A86008701A2
:104DE0000130810741310318810A0800AD318B255C
:104DF000A631003A0319FD2EFE2E2F2F0B2FAD31B9
:104E00004525A6314C2FAD314A25A6314C2FAD3169
:104E10005425A6314C2F23002F08FA007A08F900F8
:104E20000630A03E860001308700413F8A00403FA7
:104E30000A00A731FB00FC017C08003A0319212F6E
:104E4000072F7B08013A0319072F033A0319FF2E96
:104E5000013A0319032F073A0319072F072F2300DD
:104E60003C101730A03E860001308700403F840090
:104E70008501810A0008AD313B25A63101302300B0
:104E8000B8020030B93B38083904031D482F492FB8
:104E90004B2F06304C2F03300800210038088600C5
:104EA000390887000108C000C1014008B00041086E
:104EB000B1003A0886003B0887000108C200C30120
:104EC0004208B2004308B30098310420A731210002
:104ED0003A0886003B0887000108C000C10140086D
:104EE000B0004108B1003C0886003D088700010879
:104EF000C200C3014208B2004308B300380886006C
:104F0000390887000108C400C5014408B4004508F9
:104F1000B5003E0886003F0887000108C600C701AB
:104F20004608B6004708B7008731B227A7312930B5
:104F30002100C1009630C0007F30890B9D2FC00B2F
:104F40009D2FC10B9D2F08002000BE002100631C77
:104F5000AA2FAB2FB42F20003E08B9003908AE00AD
:104F60003608A2319522A7312000B81BB82FB92FDF
:104F7000BE2F3808BD003708BC00C02FBC01BD01E2
:104F8000BA01BB01D42F20302000A6000030A700BA
:104F90003E08B9003908A800A631A426A73101307F
:104FA0002000BA070030BB3D3B08803AB9003D08FD
:104FB000803A3902031DDE2F3C083A02031CE12F20
:104FC000E22FC32F21006318E62FE72FF02F2000D8
:104FD0003E08B9003908AE003608A2319522A73143
:104FE00020003608A3000230A400A0314A20A731D7
:104FF00020003C082307B6003D08243DB700080008
:1050000040342D34C7342D34B7342D34F63426349F
:1050100037342534A9342D349C34233445342D348D
:105020004A342D344F342D3454342D3459342D34E6
:105030005E342D3463342D3468342D3414342334E9
:105040002D343E34203454344534533454342034D5
:1050500043344F344E3446344F3452344D34453457
:1050600020342D34203441345434543445344E34B7
:105070005434453420344134433451345534493464
:105080005434543445344D3445344E3454340D3452
:105090000A3400342D343E342034503452344F34EA
:1050A0004734523441344D344D344134543449340E
:1050B0004F344E3420344D344F34443455344C3412
:1050C00045342034313420345434453452344D3452
:1050D00049344E34453445340D340A3400342D34CB
:1050E0003E342034503452344F34473452344134F7
:1050F0004D344D344134543449344F344E342034DB
:105100004D344F34443455344C34453420343234E7
:1051100020345434453452344D3449344E344534BB
:1051200045340D340A3400344134743474346534F5
:105130006E34743465342034763461346C346934BC
:1051400064346134743469346F346E3420346C34B4
:1051500065346434203472346F34753467346534A4
:105160000D340A3400342D343E342034503452345B
:105170004F344734523441344D344D344134543437
:1051800049344F344E34203445344E342034433483
:105190004F345534523453340D340A3400342D34E2
:1051A0003E3420344534523452344534553452342C
:1051B0002034503452344F344734523441344D3417
:1051C0004D344134543449344F344E340D340A3460
:1051D00000342D343E342034543445345334543464
:1051E00020344D3441344E34553445344C3420341D
:1051F00045344E34203443344F34553452345334D0
:105200000D340A34003441345434543445344E346B
:10521000543445342034563441344C3449344434C5
:105220004134543449344F344E3420344C344534B2
:10523000443453340D340A3400342D343E34203495
:1052400053344C344134563445342034523445348C
:10525000533450344F344E345334453420344E3468
:1052600055344C344C340D340A3400342D343E342F
:1052700020344534463446344134433445344D3487
:1052800045344E345434203445344E342034433481
:105290004F345534523453340D340A3400342D34E1
:1052A0003E34203453344C34413456344534203465
:1052B00045344E3444342034503452344F3447341F
:1052C00020344B34383420344F34463446340034A0
:105A2C0008000834240096140800240016150800F9
:105A3C002400961508002400110808002000911578
:105A4C000800A0316420AD31080023001D121D1682
:105A5C000800240096161616080024009612161636
:105A6C000800A3316E23AD310800F000700824004B
:105A7C00910008002300BC10BB010E300800AD31B2
:105A8C001825AD3101300800AD311825AD3102308B
:105A9C000800AD311825AD3101300800AD311B25A2
:105AAC00AD3100300800AD313325AD310530080083
:105ABC00AD312F25AD310A300800AD312F25AD3178
:105ACC00093008002300BC10BB010E3008002A303E
:105ADC00A5317D25AD3108007730A5317D25AD315F
:105AEC0008007630A5317D25AD3108007530A53123
:105AFC007D25AD3108003D30A5317D25AD31080047
:105B0C006130A5317D25AD3108002400160E890CBD
:105B1C00890C01390800AE312726AD31240016144A
:105B2C000800AE312726AD3124001615080064009C
:105B3C0080010131890B9E2D0034FE0012001E00E5
:105B4C00FE0BA42D003423003C10AD311E25AD31CD
:105B5C00043008002000A5002508A3314123AD31F5
:105B6C00080023003C143635AD313B25AD310330F4
:105B7C000800F03021009E009B019C0101309D002B
:105B8C00080023003C140314360DAD313B25AD3118
:105B9C0005300800200024082300D800200023082A
:105BAC002300D7000800200024082200C800200091
:105BBC0023082200C7000800200024082200C60089
:105BCC00200023082200C500080020002408220021
:105BDC00CA00200023082200C90008002000240865
:105BEC002100E600200023082100E5000800013018
:105BFC00A0310020AD313530890B022E0000080099
:105C0C0020008D190A2E0B2E062E8D1D0E2E0F2EFA
:105C1C000B2E0800283024009500960194012730A3
:105C2C00920021008E150E1608007030210099008C
:105C3C0098012200960121001A1F252E262E212EB6
:105C4C000800240014192B2E2C2E272E16081F3971
:105C5C00031D312E322E272E080022008D126830A3
:105C6C002000A300E430890B392EA30B392E000041
:105C7C0008007608F1007508F0007708F80078083D
:105C8C00F2000030A231BE22AE3108002000A30089
:105C9C0023080319522E532E562E22000C14582E64
:105CAC0022000C1008002000A300230803195F2E0B
:105CBC00602E632E22001014652E22001010080096
:105CCC002000A300230803196C2E6D2E702E2200C9
:105CDC009014722E2200901008002000A3002308BC
:105CEC000319792E7A2E7D2E220010157F2E22007C
:105CFC00101108002000A30023080319862E872EFC
:105D0C008A2E22008C148C2E22008C10080020006D
:105D1C00A30023080319932E942E972E22000C1502
:105D2C00992E22000C1108002000A300230803194F
:105D3C00A02EA12EA42E22000C16A62E22000C1290
:105D4C0008002000A30023080319AD2EAE2EB12E9F
:105D5C0022008C16B32E22008C1208002000A30007
:105D6C0023080319BA2EBB2EBE2E22008C15C02E72
:105D7C0022008C11080022008D1268302000A30034
:105D8C00E430890BC72EA30BC72E000022008D1602
:105D9C000800323024009200363095009601803095
:105DAC00940021008E150E168B170B1791150800F9
:105DBC0020006A080319E32EE42EEB2EA331FA23FC
:105DCC00AE312000A5002508A60026080800F30027
:105DDC002300BC1DF22EF32EFC2E7308F200720869
:105DEC00B7007108B9007008B800BC110800A031E8
:105DFC00D120AE31AE311B26AE3198310020AE3100
:105E0C00AD31BF25AE31A531C325AE310800200020
:105E1C00A300AE312726AF312000230824009100C7
:105E2C002000911D1A2F1B2F162F911108000230E4
:105E3C00F0000030F1007908AE31ED26AF310030C2
:105E4C00F500F600F701AE313F26AF310430080003
:105E5C000130F0000030F1007908AE31ED26AF31A1
:105E6C000030F500F600F701AE313F26AF310230BD
:105E7C0008000230F0000030F1007908AE31ED2658
:105E8C00AF310030F500F600F701AE313F26AF31EF
:105E9C00023008000130F0000030F1007908AE311A
:105EAC00ED26AF310030F500F600F701AE313F269C
:105EBC00AF31043008000D340A340034003400349F
:105ECC00003400340034003400340D340A3400340F
:105EDC00003400340034003400340034003420002A
:105EEC00A400AD319125AF3121006908AF310D27E8
:105EFC00AF312000240821006E04AF310D27AF31E3
:105F0C00AD319725AF310800AF302000E9006908AA
:105F1C002100AF002E082000E50021002D082000F4
:105F2C00E400AF30E9006908E6000030A4318A24AF
:105F3C00AF31080020003408A4003308A300A031BE
:105F4C004A20AF31200023083307A7002408343D32
:105F5C00A8003608AA003508A900A2314622AF31A4
:105F6C000800790886008701403FF000413FF100AE
:105F7C007908023E860087010108AE31ED26AF316B
:105F8C000030F500F600F701AE313F26AF3102309C
:105F9C0008002000A60021006A082000A5002508A2
:105FAC00A60426080438AF317527AF312000260827
:105FBC00FB39AF317527AF314230890BE32F0032FB
:105FCC0008002000A8002100EA01EA0A20002808A5
:105FDC00F039AF31CF27AF3120002808A7000330AC
:105FEC00A735FF3E031DF62F2735F039AF31CF27EC
:105FFC00AF3108002D343E34203445344634463419
:10600C004134433445344D3445344E3454342034C7
:10601C005434453452344D3449344E3445340D34B3
:10602C000A3400342D343E34203453344C3441344F
:10603C00563445345F34543445345334543420345A
:10604C0047344534543420344134433451340D34C2
:10605C000A3400342D343E34203453344C3441341F
:10606C00563445345F34543445345334543420342A
:10607C0047344534543420344F344B340D340A34C3
:10608C0000342D343E34203453344C3441345634A3
:10609C0045345F3454344534533454342034473409
:1060AC004534543420344B344F340D340A340034DA
:1060BC002D343E34203453344C344134563445342E
:1060CC0020345434453453345434203443344F3412
:1060DC004E3446344F3452344D34453400342D3420
:1060EC003E34203453344C3441345634453420340B
:1060FC0054344534533454342034413443345134BF
:10610C005534493454345434453400342D343E34ED
:10611C00203453344C344134563445345F34503489
:10612C0052344F3447342034533454344134523481
:10613C0054340D340A3400342D343E342034463477
:10614C0049344E342034543445345334543420348C
:10615C004D3441344E34553445344C340D340A34BA
:10616C0000342D343E34203453344C3441345634C2
:10617C004534203445344E34203441345434543472
:10618C0045344E34543445343A3400342D343E3492
:10619C00203453344C344134563445345F34543405
:1061AC004534533454342034473445345434203437
:1061BC004F344B3400344534523452344534553416
:1061CC0052342034503452344F34473452344134E6
:1061DC004D344D344134543449344F344E340034FE
:1061EC0050345234453453345334453452342034BF
:1061FC004F344B3420344F345534203445345234DE
:10620C0052344534553452340034413454345434BB
:10621C0045344E34543445342034413443345134B1
:10622C00553449345434543445344D3445344E3457
